{
  "contractName": "Market",
  "abi": [
    {
      "inputs": [
        {
          "internalType": "address",
          "name": "_currencyTokenAddress",
          "type": "address"
        },
        {
          "internalType": "address",
          "name": "_itemTokenAddress",
          "type": "address"
        }
      ],
      "stateMutability": "nonpayable",
      "type": "constructor"
    },
    {
      "anonymous": false,
      "inputs": [
        {
          "indexed": false,
          "internalType": "address",
          "name": "buyer",
          "type": "address"
        },
        {
          "indexed": false,
          "internalType": "uint256",
          "name": "item",
          "type": "uint256"
        },
        {
          "indexed": false,
          "internalType": "uint256",
          "name": "amount",
          "type": "uint256"
        }
      ],
      "name": "TicketsSold",
      "type": "event"
    },
    {
      "anonymous": false,
      "inputs": [
        {
          "indexed": false,
          "internalType": "uint256",
          "name": "ad",
          "type": "uint256"
        },
        {
          "indexed": false,
          "internalType": "bytes32",
          "name": "status",
          "type": "bytes32"
        }
      ],
      "name": "TradeStatusChange",
      "type": "event"
    },
    {
      "inputs": [],
      "name": "currencyToken",
      "outputs": [
        {
          "internalType": "contract IERC20",
          "name": "",
          "type": "address"
        }
      ],
      "stateMutability": "view",
      "type": "function",
      "constant": true
    },
    {
      "inputs": [
        {
          "internalType": "uint256",
          "name": "",
          "type": "uint256"
        }
      ],
      "name": "itemOwners",
      "outputs": [
        {
          "internalType": "address",
          "name": "",
          "type": "address"
        }
      ],
      "stateMutability": "view",
      "type": "function",
      "constant": true
    },
    {
      "inputs": [],
      "name": "itemOwnersCount",
      "outputs": [
        {
          "internalType": "uint256",
          "name": "",
          "type": "uint256"
        }
      ],
      "stateMutability": "view",
      "type": "function",
      "constant": true
    },
    {
      "inputs": [],
      "name": "itemToken",
      "outputs": [
        {
          "internalType": "contract IERC1155",
          "name": "",
          "type": "address"
        }
      ],
      "stateMutability": "view",
      "type": "function",
      "constant": true
    },
    {
      "inputs": [],
      "name": "tradeCounter",
      "outputs": [
        {
          "internalType": "uint256",
          "name": "",
          "type": "uint256"
        }
      ],
      "stateMutability": "view",
      "type": "function",
      "constant": true
    },
    {
      "inputs": [
        {
          "internalType": "uint256",
          "name": "",
          "type": "uint256"
        }
      ],
      "name": "trades",
      "outputs": [
        {
          "internalType": "address",
          "name": "poster",
          "type": "address"
        },
        {
          "internalType": "uint256",
          "name": "item",
          "type": "uint256"
        },
        {
          "internalType": "uint256",
          "name": "amount",
          "type": "uint256"
        },
        {
          "internalType": "uint256",
          "name": "price",
          "type": "uint256"
        },
        {
          "internalType": "bytes32",
          "name": "status",
          "type": "bytes32"
        }
      ],
      "stateMutability": "view",
      "type": "function",
      "constant": true
    },
    {
      "inputs": [
        {
          "internalType": "uint256",
          "name": "_trade",
          "type": "uint256"
        }
      ],
      "name": "getTrade",
      "outputs": [
        {
          "internalType": "address",
          "name": "",
          "type": "address"
        },
        {
          "internalType": "uint256",
          "name": "",
          "type": "uint256"
        },
        {
          "internalType": "uint256",
          "name": "",
          "type": "uint256"
        },
        {
          "internalType": "uint256",
          "name": "",
          "type": "uint256"
        },
        {
          "internalType": "bytes32",
          "name": "",
          "type": "bytes32"
        }
      ],
      "stateMutability": "view",
      "type": "function",
      "constant": true
    },
    {
      "inputs": [
        {
          "internalType": "uint256",
          "name": "_item",
          "type": "uint256"
        },
        {
          "internalType": "uint256",
          "name": "_amount",
          "type": "uint256"
        },
        {
          "internalType": "uint256",
          "name": "_price",
          "type": "uint256"
        }
      ],
      "name": "openTrade",
      "outputs": [],
      "stateMutability": "nonpayable",
      "type": "function"
    },
    {
      "inputs": [
        {
          "internalType": "uint256",
          "name": "_trade",
          "type": "uint256"
        },
        {
          "internalType": "uint256",
          "name": "_amount",
          "type": "uint256"
        }
      ],
      "name": "executeTrade",
      "outputs": [],
      "stateMutability": "nonpayable",
      "type": "function"
    },
    {
      "inputs": [
        {
          "internalType": "uint256",
          "name": "_trade",
          "type": "uint256"
        }
      ],
      "name": "cancelTrade",
      "outputs": [],
      "stateMutability": "nonpayable",
      "type": "function"
    },
    {
      "inputs": [
        {
          "internalType": "address",
          "name": "operator",
          "type": "address"
        },
        {
          "internalType": "address",
          "name": "from",
          "type": "address"
        },
        {
          "internalType": "uint256",
          "name": "id",
          "type": "uint256"
        },
        {
          "internalType": "uint256",
          "name": "value",
          "type": "uint256"
        },
        {
          "internalType": "bytes",
          "name": "data",
          "type": "bytes"
        }
      ],
      "name": "onERC1155Received",
      "outputs": [
        {
          "internalType": "bytes4",
          "name": "",
          "type": "bytes4"
        }
      ],
      "stateMutability": "nonpayable",
      "type": "function"
    },
    {
      "inputs": [
        {
          "internalType": "address",
          "name": "operator",
          "type": "address"
        },
        {
          "internalType": "address",
          "name": "from",
          "type": "address"
        },
        {
          "internalType": "uint256[]",
          "name": "ids",
          "type": "uint256[]"
        },
        {
          "internalType": "uint256[]",
          "name": "values",
          "type": "uint256[]"
        },
        {
          "internalType": "bytes",
          "name": "data",
          "type": "bytes"
        }
      ],
      "name": "onERC1155BatchReceived",
      "outputs": [
        {
          "internalType": "bytes4",
          "name": "",
          "type": "bytes4"
        }
      ],
      "stateMutability": "nonpayable",
      "type": "function"
    },
    {
      "inputs": [
        {
          "internalType": "bytes4",
          "name": "interfaceId",
          "type": "bytes4"
        }
      ],
      "name": "supportsInterface",
      "outputs": [
        {
          "internalType": "bool",
          "name": "",
          "type": "bool"
        }
      ],
      "stateMutability": "view",
      "type": "function",
      "constant": true
    }
  ],
  "bytecode": "0x60806040523480156200001157600080fd5b5060405162001d5438038062001d5483398181016040528101906200003791906200013a565b816000806101000a81548173ffffffffffffffffffffffffffffffffffffffff021916908373ffffffffffffffffffffffffffffffffffffffff16021790555080600160006101000a81548173ffffffffffffffffffffffffffffffffffffffff021916908373ffffffffffffffffffffffffffffffffffffffff16021790555060006005819055506000600381905550505062000181565b600080fd5b600073ffffffffffffffffffffffffffffffffffffffff82169050919050565b60006200010282620000d5565b9050919050565b6200011481620000f5565b81146200012057600080fd5b50565b600081519050620001348162000109565b92915050565b60008060408385031215620001545762000153620000d0565b5b6000620001648582860162000123565b9250506020620001778582860162000123565b9150509250929050565b611bc380620001916000396000f3fe608060405234801561001057600080fd5b50600436106100cf5760003560e01c806333f4ee1f1161008c5780636b2fa374116100665780636b2fa3741461022c578063777f54401461024a578063bc197c8114610268578063f23a6e6114610298576100cf565b806333f4ee1f146101c25780634a2e30bb146101de578063660d15b51461020e576100cf565b806301ffc9a7146100d457806309ec6cc7146101045780631ba05b81146101205780631e6c598e1461013e57806326fbd1d6146101725780632db25e051461018e575b600080fd5b6100ee60048036038101906100e9919061104d565b6102c8565b6040516100fb9190611095565b60405180910390f35b61011e600480360381019061011991906110e6565b610332565b005b6101286105bf565b6040516101359190611122565b60405180910390f35b610158600480360381019061015391906110e6565b6105c5565b604051610169959493929190611197565b60405180910390f35b61018c600480360381019061018791906111ea565b61061b565b005b6101a860048036038101906101a391906110e6565b610b83565b6040516101b9959493929190611197565b60405180910390f35b6101dc60048036038101906101d7919061122a565b610c57565b005b6101f860048036038101906101f391906110e6565b610f38565b604051610205919061127d565b60405180910390f35b610216610f77565b6040516102239190611122565b60405180910390f35b610234610f7d565b60405161024191906112f7565b60405180910390f35b610252610fa1565b60405161025f9190611333565b60405180910390f35b610282600480360381019061027d9190611435565b610fc7565b60405161028f9190611520565b60405180910390f35b6102b260048036038101906102ad919061153b565b610fd5565b6040516102bf9190611520565b60405180910390f35b60007fd9b67a26000000000000000000000000000000000000000000000000000000007bffffffffffffffffffffffffffffffffffffffffffffffffffffffff1916827bffffffffffffffffffffffffffffffffffffffffffffffffffffffff1916149050919050565b6000600460008381526020019081526020016000206040518060a00160405290816000820160009054906101000a900473ffffffffffffffffffffffffffffffffffffffff1673ffffffffffffffffffffffffffffffffffffffff1673ffffffffffffffffffffffffffffffffffffffff1681526020016001820154815260200160028201548152602001600382015481526020016004820154815250509050806000015173ffffffffffffffffffffffffffffffffffffffff163373ffffffffffffffffffffffffffffffffffffffff1614610444576040517f08c379a000000000000000000000000000000000000000000000000000000000815260040161043b90611658565b60405180910390fd5b7f4f70656e000000000000000000000000000000000000000000000000000000008160800151146104aa576040517f08c379a00000000000000000000000000000000000000000000000000000000081526004016104a1906116c4565b60405180910390fd5b600160009054906101000a900473ffffffffffffffffffffffffffffffffffffffff1673ffffffffffffffffffffffffffffffffffffffff1663f242432a308360000151846020015185604001516040518563ffffffff1660e01b81526004016105179493929190611741565b600060405180830381600087803b15801561053157600080fd5b505af1158015610545573d6000803e3d6000fd5b505050507f43616e63656c6c6564000000000000000000000000000000000000000000000060046000848152602001908152602001600020600401819055507f4d38ed2c5ea671a5ccddc331f0ebebd94a60aaf6e572543497485d4d148f9edf826040516105b391906117bf565b60405180910390a15050565b60035481565b60046020528060005260406000206000915090508060000160009054906101000a900473ffffffffffffffffffffffffffffffffffffffff16908060010154908060020154908060030154908060040154905085565b6000600460008481526020019081526020016000206040518060a00160405290816000820160009054906101000a900473ffffffffffffffffffffffffffffffffffffffff1673ffffffffffffffffffffffffffffffffffffffff1673ffffffffffffffffffffffffffffffffffffffff16815260200160018201548152602001600282015481526020016003820154815260200160048201548152505090507f4f70656e00000000000000000000000000000000000000000000000000000000816080015114610721576040517f08c379a0000000000000000000000000000000000000000000000000000000008152600401610718906116c4565b60405180910390fd5b8181604001511015610768576040517f08c379a000000000000000000000000000000000000000000000000000000000815260040161075f90611858565b60405180910390fd5b60008054906101000a900473ffffffffffffffffffffffffffffffffffffffff1673ffffffffffffffffffffffffffffffffffffffff166323b872dd3383600001518585606001516107ba91906118a7565b6040518463ffffffff1660e01b81526004016107d893929190611901565b602060405180830381600087803b1580156107f257600080fd5b505af1158015610806573d6000803e3d6000fd5b505050506040513d601f19601f8201168201806040525081019061082a9190611964565b50600160009054906101000a900473ffffffffffffffffffffffffffffffffffffffff1673ffffffffffffffffffffffffffffffffffffffff1663a22cb4653360016040518363ffffffff1660e01b8152600401610889929190611991565b600060405180830381600087803b1580156108a357600080fd5b505af11580156108b7573d6000803e3d6000fd5b50505050600160009054906101000a900473ffffffffffffffffffffffffffffffffffffffff1673ffffffffffffffffffffffffffffffffffffffff1663f242432a30338460200151866040518563ffffffff1660e01b81526004016109209493929190611741565b600060405180830381600087803b15801561093a57600080fd5b505af115801561094e573d6000803e3d6000fd5b505050507f1ca659b067e6dc03ce655ed00f017300e4998056c56fe5e996ef3b58b630fa3e33826020015184604051610989939291906119ba565b60405180910390a16000805b600354811015610a2d573373ffffffffffffffffffffffffffffffffffffffff16600282815481106109ca576109c96119f1565b5b9060005260206000200160009054906101000a900473ffffffffffffffffffffffffffffffffffffffff1673ffffffffffffffffffffffffffffffffffffffff161415610a1a5760019150610a2d565b8080610a2590611a20565b915050610995565b50600015158115151415610ab9576002339080600181540180825580915050600190039060005260206000200160009091909190916101000a81548173ffffffffffffffffffffffffffffffffffffffff021916908373ffffffffffffffffffffffffffffffffffffffff160217905550600160036000828254610ab19190611a69565b925050819055505b82600460008681526020019081526020016000206002016000828254610adf9190611abf565b92505081905550600060046000868152602001908152602001600020600201541415610b45577f45786563757465640000000000000000000000000000000000000000000000006004600086815260200190815260200160002060040181905550610b46565b5b7f4d38ed2c5ea671a5ccddc331f0ebebd94a60aaf6e572543497485d4d148f9edf84604051610b759190611b19565b60405180910390a150505050565b600080600080600080600460008881526020019081526020016000206040518060a00160405290816000820160009054906101000a900473ffffffffffffffffffffffffffffffffffffffff1673ffffffffffffffffffffffffffffffffffffffff1673ffffffffffffffffffffffffffffffffffffffff168152602001600182015481526020016002820154815260200160038201548152602001600482015481525050905080600001518160200151826040015183606001518460800151955095509550955095505091939590929450565b600160009054906101000a900473ffffffffffffffffffffffffffffffffffffffff1673ffffffffffffffffffffffffffffffffffffffff1663f242432a333086866040518563ffffffff1660e01b8152600401610cb89493929190611741565b600060405180830381600087803b158015610cd257600080fd5b505af1158015610ce6573d6000803e3d6000fd5b505050506040518060a001604052803373ffffffffffffffffffffffffffffffffffffffff1681526020018481526020018381526020018281526020017f4f70656e0000000000000000000000000000000000000000000000000000000081525060046000600554815260200190815260200160002060008201518160000160006101000a81548173ffffffffffffffffffffffffffffffffffffffff021916908373ffffffffffffffffffffffffffffffffffffffff16021790555060208201518160010155604082015181600201556060820151816003015560808201518160040155905050600160056000828254610de19190611a69565b9250508190555060016005541415610e71576002309080600181540180825580915050600190039060005260206000200160009091909190916101000a81548173ffffffffffffffffffffffffffffffffffffffff021916908373ffffffffffffffffffffffffffffffffffffffff160217905550600160036000828254610e699190611a69565b925050819055505b6002339080600181540180825580915050600190039060005260206000200160009091909190916101000a81548173ffffffffffffffffffffffffffffffffffffffff021916908373ffffffffffffffffffffffffffffffffffffffff160217905550600160036000828254610ee79190611a69565b925050819055507f4d38ed2c5ea671a5ccddc331f0ebebd94a60aaf6e572543497485d4d148f9edf6001600554610f1e9190611abf565b604051610f2b9190611b66565b60405180910390a1505050565b60028181548110610f4857600080fd5b906000526020600020016000915054906101000a900473ffffffffffffffffffffffffffffffffffffffff1681565b60055481565b60008054906101000a900473ffffffffffffffffffffffffffffffffffffffff1681565b600160009054906101000a900473ffffffffffffffffffffffffffffffffffffffff1681565b600098975050505050505050565b600063f23a6e6160e01b90509695505050505050565b600080fd5b600080fd5b60007fffffffff0000000000000000000000000000000000000000000000000000000082169050919050565b61102a81610ff5565b811461103557600080fd5b50565b60008135905061104781611021565b92915050565b60006020828403121561106357611062610feb565b5b600061107184828501611038565b91505092915050565b60008115159050919050565b61108f8161107a565b82525050565b60006020820190506110aa6000830184611086565b92915050565b6000819050919050565b6110c3816110b0565b81146110ce57600080fd5b50565b6000813590506110e0816110ba565b92915050565b6000602082840312156110fc576110fb610feb565b5b600061110a848285016110d1565b91505092915050565b61111c816110b0565b82525050565b60006020820190506111376000830184611113565b92915050565b600073ffffffffffffffffffffffffffffffffffffffff82169050919050565b60006111688261113d565b9050919050565b6111788161115d565b82525050565b6000819050919050565b6111918161117e565b82525050565b600060a0820190506111ac600083018861116f565b6111b96020830187611113565b6111c66040830186611113565b6111d36060830185611113565b6111e06080830184611188565b9695505050505050565b6000806040838503121561120157611200610feb565b5b600061120f858286016110d1565b9250506020611220858286016110d1565b9150509250929050565b60008060006060848603121561124357611242610feb565b5b6000611251868287016110d1565b9350506020611262868287016110d1565b9250506040611273868287016110d1565b9150509250925092565b6000602082019050611292600083018461116f565b92915050565b6000819050919050565b60006112bd6112b86112b38461113d565b611298565b61113d565b9050919050565b60006112cf826112a2565b9050919050565b60006112e1826112c4565b9050919050565b6112f1816112d6565b82525050565b600060208201905061130c60008301846112e8565b92915050565b600061131d826112c4565b9050919050565b61132d81611312565b82525050565b60006020820190506113486000830184611324565b92915050565b6113578161115d565b811461136257600080fd5b50565b6000813590506113748161134e565b92915050565b600080fd5b600080fd5b600080fd5b60008083601f84011261139f5761139e61137a565b5b8235905067ffffffffffffffff8111156113bc576113bb61137f565b5b6020830191508360208202830111156113d8576113d7611384565b5b9250929050565b60008083601f8401126113f5576113f461137a565b5b8235905067ffffffffffffffff8111156114125761141161137f565b5b60208301915083600182028301111561142e5761142d611384565b5b9250929050565b60008060008060008060008060a0898b03121561145557611454610feb565b5b60006114638b828c01611365565b98505060206114748b828c01611365565b975050604089013567ffffffffffffffff81111561149557611494610ff0565b5b6114a18b828c01611389565b9650965050606089013567ffffffffffffffff8111156114c4576114c3610ff0565b5b6114d08b828c01611389565b9450945050608089013567ffffffffffffffff8111156114f3576114f2610ff0565b5b6114ff8b828c016113df565b92509250509295985092959890939650565b61151a81610ff5565b82525050565b60006020820190506115356000830184611511565b92915050565b60008060008060008060a0878903121561155857611557610feb565b5b600061156689828a01611365565b965050602061157789828a01611365565b955050604061158889828a016110d1565b945050606061159989828a016110d1565b935050608087013567ffffffffffffffff8111156115ba576115b9610ff0565b5b6115c689828a016113df565b92509250509295509295509295565b600082825260208201905092915050565b7f54726164652063616e2062652063616e63656c6c6564206f6e6c79206279207060008201527f6f737465722e0000000000000000000000000000000000000000000000000000602082015250565b60006116426026836115d5565b915061164d826115e6565b604082019050919050565b6000602082019050818103600083015261167181611635565b9050919050565b7f5472616465206973206e6f74204f70656e2e0000000000000000000000000000600082015250565b60006116ae6012836115d5565b91506116b982611678565b602082019050919050565b600060208201905081810360008301526116dd816116a1565b9050919050565b600082825260208201905092915050565b7f3078303000000000000000000000000000000000000000000000000000000000600082015250565b600061172b6004836116e4565b9150611736826116f5565b602082019050919050565b600060a082019050611756600083018761116f565b611763602083018661116f565b6117706040830185611113565b61177d6060830184611113565b818103608083015261178e8161171e565b905095945050505050565b7f43616e63656c6c65640000000000000000000000000000000000000000000000815250565b60006040820190506117d46000830184611113565b6117e060208301611799565b92915050565b7f204e6f7420656e6f756768207469636b65747320617661696c61626c6520666f60008201527f7220796f7572207265717565737420746f206275790000000000000000000000602082015250565b60006118426035836115d5565b915061184d826117e6565b604082019050919050565b6000602082019050818103600083015261187181611835565b9050919050565b7f4e487b7100000000000000000000000000000000000000000000000000000000600052601160045260246000fd5b60006118b2826110b0565b91506118bd836110b0565b9250817fffffffffffffffffffffffffffffffffffffffffffffffffffffffffffffffff04831182151516156118f6576118f5611878565b5b828202905092915050565b6000606082019050611916600083018661116f565b611923602083018561116f565b6119306040830184611113565b949350505050565b6119418161107a565b811461194c57600080fd5b50565b60008151905061195e81611938565b92915050565b60006020828403121561197a57611979610feb565b5b60006119888482850161194f565b91505092915050565b60006040820190506119a6600083018561116f565b6119b36020830184611086565b9392505050565b60006060820190506119cf600083018661116f565b6119dc6020830185611113565b6119e96040830184611113565b949350505050565b7f4e487b7100000000000000000000000000000000000000000000000000000000600052603260045260246000fd5b6000611a2b826110b0565b91507fffffffffffffffffffffffffffffffffffffffffffffffffffffffffffffffff821415611a5e57611a5d611878565b5b600182019050919050565b6000611a74826110b0565b9150611a7f836110b0565b9250827fffffffffffffffffffffffffffffffffffffffffffffffffffffffffffffffff03821115611ab457611ab3611878565b5b828201905092915050565b6000611aca826110b0565b9150611ad5836110b0565b925082821015611ae857611ae7611878565b5b828203905092915050565b7f4578656375746564000000000000000000000000000000000000000000000000815250565b6000604082019050611b2e6000830184611113565b611b3a60208301611af3565b92915050565b7f4f70656e00000000000000000000000000000000000000000000000000000000815250565b6000604082019050611b7b6000830184611113565b611b8760208301611b40565b9291505056fea26469706673582212207eca1e77ee4e0b4e55cc74d32c83f0255aceb08a59f762c01b7cb43702a5163064736f6c63430008090033",
  "immutableReferences": {},
  "source": "// SPDX-License-Identifier: MIT\n\npragma solidity ^0.8.0;\n\nimport \"@openzeppelin/contracts/access/Ownable.sol\";\nimport \"@openzeppelin/contracts/token/ERC20/IERC20.sol\";\nimport \"@openzeppelin/contracts/token/ERC1155/IERC1155.sol\";\n\n//open trade by sending nft from owner to contract address of this Market\n//execute trade by sending the required amount of erc20 from buyer to seller via contract\n//transfer the nft to the buyer from the market\n\nimport \"@openzeppelin/contracts/token/ERC1155/IERC1155Receiver.sol\";\n\n/**\n * @title Market\n * @notice Implements the market. The market will be governed\n * by an ERC20 token as currency, and an ERC1155 token that represents the\n * ownership of the items being traded. Only ads for selling items are\n * implemented. The item tokenization is responsibility of the ERC1155 contract\n * which should encode any item details.\n */\n \n \ncontract Market is IERC1155Receiver {\n    event TradeStatusChange(uint256 ad, bytes32 status);\n    event TicketsSold(address buyer, uint256 item, uint256 amount);\n\n    IERC20 public currencyToken;\n    IERC1155 public itemToken;\n    address[] public itemOwners;\n    uint256 public itemOwnersCount;\n    struct Trade {\n        address poster;\n        uint256 item;\n        uint256 amount;\n        uint256 price;\n        bytes32 status; // Open, Executed, Cancelled\n    }\n\n    mapping(uint256 => Trade) public trades;\n\n    uint256 public tradeCounter;\n    \n    constructor (address _currencyTokenAddress, address _itemTokenAddress)\n        public\n        \n    {\n        currencyToken = IERC20(_currencyTokenAddress);\n        itemToken = IERC1155(_itemTokenAddress);\n        tradeCounter = 0;\n        itemOwnersCount = 0;\n    }\n\n    /**\n     * @dev Returns the details for a trade.\n     * @param _trade The id for the trade.\n     */\n    function getTrade(uint256 _trade)\n        public\n        virtual\n        view\n        returns(address, uint256, uint256, uint256, bytes32)\n    {\n        Trade memory trade = trades[_trade];\n        return (trade.poster, trade.item, trade.amount, trade.price, trade.status);\n    }\n\n    /**\n     * @dev Opens a new trade. Puts _item in escrow.\n     * @param _item The id for the item to trade.\n     * @param _price The amount of currency for which to trade the item.\n     */\n    function openTrade(uint256 _item, uint256 _amount, uint256 _price)\n        public\n        virtual\n    {\n        //before you transfer, ensure that the nft has been approved to be transferred to this contract.\n        //thats done from the calling contract\n        itemToken.safeTransferFrom(msg.sender, address(this), _item, _amount, \"0x00\");\n        \n        trades[tradeCounter] = Trade({\n            poster: msg.sender,\n            item: _item,\n            amount: _amount,\n            price: _price,\n            status: \"Open\"\n        });\n        tradeCounter += 1;\n        //if this is the first trade, add the market itself to the list of owners \n        if (tradeCounter == 1) {\n            itemOwners.push(address(this));\n            itemOwnersCount += 1;\n        }\n        //for all subsequent trades, add the seller also to the owners, as he was/is also a owner\n        itemOwners.push(msg.sender);\n        itemOwnersCount += 1;\n        emit TradeStatusChange(tradeCounter - 1, \"Open\");\n    }\n\n    /**\n     * @dev Executes a trade. Must have approved this contract to transfer the\n     * amount of currency specified to the poster. Transfers ownership of the\n     * item to the filler.\n     * @param _trade The id of an existing trade\n     */\n    function executeTrade(uint256 _trade, uint256 _amount)\n        public\n        virtual\n    {\n        Trade memory trade = trades[_trade];\n        require(trade.status == \"Open\", \"Trade is not Open.\");\n        require(trade.amount >= _amount, \" Not enough tickets available for your request to buy\");\n        //console.log(\"Transferring MNY = \", trade.price * _amount);\n        currencyToken.transferFrom(msg.sender, trade.poster, trade.price*_amount);\n        //approve the buyer to buy this token.\n        itemToken.setApprovalForAll(msg.sender, true);\n        itemToken.safeTransferFrom(address(this), msg.sender, trade.item, _amount, \"0x00\");\n        emit TicketsSold(msg.sender, trade.item, _amount);\n        bool found=false;\n        for(uint i=0; i< itemOwnersCount; i++) {\n            if (itemOwners[i] == msg.sender) {\n                found = true;\n                break;\n            }\n        }\n        if (found == false) {\n            itemOwners.push(msg.sender);\n            itemOwnersCount += 1;\n        }\n        //if not all tickets sold, keep this trade open.\n        //change the contract, not the copy\n        trades[_trade].amount -= _amount;\n        if (trades[_trade].amount == 0) {\n            trades[_trade].status = \"Executed\";\n        } else {\n            //do nothing, trade stays open\n        }\n        emit TradeStatusChange(_trade, \"Executed\");\n    }\n\n    /**\n     * @dev Cancels a trade by the poster.\n     * @param _trade The trade to be cancelled.\n     */\n    function cancelTrade(uint256 _trade)\n        public\n        virtual\n    {\n        Trade memory trade = trades[_trade];\n        require(\n            msg.sender == trade.poster,\n            \"Trade can be cancelled only by poster.\"\n        );\n        require(trade.status == \"Open\", \"Trade is not Open.\");\n        itemToken.safeTransferFrom(address(this), trade.poster, trade.item, trade.amount, \"0x00\");\n        trades[_trade].status = \"Cancelled\";\n        emit TradeStatusChange(_trade, \"Cancelled\");\n    }\n    \n    \n    /*\n     * @dev Returns the details for a trade.\n     * @param _trade The id for the trade.\n     */\n    /*function getTrade1155(uint256 _trade)\n        public\n        virtual\n        view\n        returns(address, uint256, uint256, uint256, bytes32)\n    {\n        Trade1155 memory trade = trades1155[_trade];\n        return (trade.poster, trade.item, trade.amount, trade.price, trade.status);\n    }\n*/\n    /*\n     * @dev Opens a new trade. Puts _item in escrow.\n     * @param _item The id for the item to trade.\n     * @param _price The amount of currency for which to trade the item.\n     */\n  /*  function openTrade1155(uint256 _item, uint256 _amount, uint256 _price)\n        public\n        virtual\n    {\n        //before you transfer, ensure that the nft has been approved to be transferred to this contract.\n        //thats done from the calling contract\n        item1155Token.safeTransferFrom(msg.sender, address(this), _item, _amount, \"0x00\");\n        \n        trades1155[trade1155Counter] = Trade1155({\n            poster: msg.sender,\n            item: _item,\n            price: _price,\n            amount: _amount,\n            status: \"Open\"\n        });\n        trade1155Counter += 1;\n        emit TradeStatusChange(trade1155Counter - 1, \"Open\");\n    }\n*/\n    /*\n     * @dev Executes a trade. Must have approved this contract to transfer the\n     * amount of currency specified to the poster. Transfers ownership of the\n     * item to the filler.\n     * @param _trade The id of an existing trade\n     */\n  /*  function executeTrade1155(uint256 _trade)\n        public\n        virtual\n    {\n        Trade1155 memory trade = trades1155[_trade];\n        require(trade.status == \"Open\", \"Trade is not Open.\");\n        currencyToken.transferFrom(msg.sender, trade.poster, trade.price);\n        //approve the buyer to buy this token.\n        item1155Token.setApprovalForAll(msg.sender, true);\n        item1155Token.safeTransferFrom(address(this), msg.sender, trade.item, trade.amount, \"0x00\");\n        trades1155[_trade].status = \"Executed\";\n        emit TradeStatusChange(_trade, \"Executed\");\n    }\n*/\n    /*\n     * @dev Cancels a trade by the poster.\n     * @param _trade The trade to be cancelled.\n     */\n  /*  function cancelTrade1155(uint256 _trade)\n        public\n        virtual\n    {\n        Trade1155 memory trade = trades1155[_trade];\n        require(\n            msg.sender == trade.poster,\n            \"Trade can be cancelled only by poster.\"\n        );\n        require(trade.status == \"Open\", \"Trade is not Open.\");\n        item1155Token.safeTransferFrom(address(this), trade.poster, trade.item, trade.amount, \"0x00\");\n        trades1155[_trade].status = \"Cancelled\";\n        emit TradeStatusChange(_trade, \"Cancelled\");\n    }\n    */\n\n\n    function onERC1155Received(\n        address operator,\n        address from,\n        uint256 id,\n        uint256 value,\n        bytes calldata data\n        ) override external returns (bytes4) {\n          return (this.onERC1155Received.selector);  \n    }\n\n    function onERC1155BatchReceived(\n        address operator,\n        address from,\n        uint256[] calldata ids,\n        uint256[] calldata values,\n        bytes calldata data\n    ) override external returns (bytes4) {\n        this.onERC1155BatchReceived.selector;\n    }\n\n    function supportsInterface(bytes4 interfaceId) public view virtual override returns (bool) {\n        return interfaceId == type(IERC1155).interfaceId;\n    }\n    \n}",
  "sourcePath": "/Users/priyanarasimhan/Dev/blockchain/settlemint-demo/demo3/contracts/Market.sol",
  "compiler": {
    "name": "solc",
    "version": "0.8.9+commit.e5eed63a.Emscripten.clang"
  },
  "schemaVersion": "3.4.3",
  "updatedAt": "2021-11-08T15:33:22.298Z",
  "networkType": "ethereum",
  "devdoc": {
    "kind": "dev",
    "methods": {
      "cancelTrade(uint256)": {
        "details": "Cancels a trade by the poster.",
        "params": {
          "_trade": "The trade to be cancelled."
        }
      },
      "executeTrade(uint256,uint256)": {
        "details": "Executes a trade. Must have approved this contract to transfer the amount of currency specified to the poster. Transfers ownership of the item to the filler.",
        "params": {
          "_trade": "The id of an existing trade"
        }
      },
      "getTrade(uint256)": {
        "details": "Returns the details for a trade.",
        "params": {
          "_trade": "The id for the trade."
        }
      },
      "onERC1155BatchReceived(address,address,uint256[],uint256[],bytes)": {
        "details": "Handles the receipt of a multiple ERC1155 token types. This function is called at the end of a `safeBatchTransferFrom` after the balances have been updated. To accept the transfer(s), this must return `bytes4(keccak256(\"onERC1155BatchReceived(address,address,uint256[],uint256[],bytes)\"))` (i.e. 0xbc197c81, or its own function selector).",
        "params": {
          "data": "Additional data with no specified format",
          "from": "The address which previously owned the token",
          "ids": "An array containing ids of each token being transferred (order and length must match values array)",
          "operator": "The address which initiated the batch transfer (i.e. msg.sender)",
          "values": "An array containing amounts of each token being transferred (order and length must match ids array)"
        },
        "returns": {
          "_0": "`bytes4(keccak256(\"onERC1155BatchReceived(address,address,uint256[],uint256[],bytes)\"))` if transfer is allowed"
        }
      },
      "onERC1155Received(address,address,uint256,uint256,bytes)": {
        "details": "Handles the receipt of a single ERC1155 token type. This function is called at the end of a `safeTransferFrom` after the balance has been updated. To accept the transfer, this must return `bytes4(keccak256(\"onERC1155Received(address,address,uint256,uint256,bytes)\"))` (i.e. 0xf23a6e61, or its own function selector).",
        "params": {
          "data": "Additional data with no specified format",
          "from": "The address which previously owned the token",
          "id": "The ID of the token being transferred",
          "operator": "The address which initiated the transfer (i.e. msg.sender)",
          "value": "The amount of tokens being transferred"
        },
        "returns": {
          "_0": "`bytes4(keccak256(\"onERC1155Received(address,address,uint256,uint256,bytes)\"))` if transfer is allowed"
        }
      },
      "openTrade(uint256,uint256,uint256)": {
        "details": "Opens a new trade. Puts _item in escrow.",
        "params": {
          "_item": "The id for the item to trade.",
          "_price": "The amount of currency for which to trade the item."
        }
      },
      "supportsInterface(bytes4)": {
        "details": "Returns true if this contract implements the interface defined by `interfaceId`. See the corresponding https://eips.ethereum.org/EIPS/eip-165#how-interfaces-are-identified[EIP section] to learn more about how these ids are created. This function call must use less than 30 000 gas."
      }
    },
    "title": "Market",
    "version": 1
  },
  "userdoc": {
    "kind": "user",
    "methods": {},
    "notice": "Implements the market. The market will be governed by an ERC20 token as currency, and an ERC1155 token that represents the ownership of the items being traded. Only ads for selling items are implemented. The item tokenization is responsibility of the ERC1155 contract which should encode any item details.",
    "version": 1
  }
}