{
  "contractName": "Tickets",
  "abi": [
    {
      "inputs": [
        {
          "internalType": "uint256",
          "name": "num_tickets",
          "type": "uint256"
        }
      ],
      "stateMutability": "nonpayable",
      "type": "constructor"
    },
    {
      "anonymous": false,
      "inputs": [
        {
          "indexed": true,
          "internalType": "address",
          "name": "account",
          "type": "address"
        },
        {
          "indexed": true,
          "internalType": "address",
          "name": "operator",
          "type": "address"
        },
        {
          "indexed": false,
          "internalType": "bool",
          "name": "approved",
          "type": "bool"
        }
      ],
      "name": "ApprovalForAll",
      "type": "event"
    },
    {
      "anonymous": false,
      "inputs": [
        {
          "indexed": false,
          "internalType": "address",
          "name": "account",
          "type": "address"
        }
      ],
      "name": "Paused",
      "type": "event"
    },
    {
      "anonymous": false,
      "inputs": [
        {
          "indexed": true,
          "internalType": "bytes32",
          "name": "role",
          "type": "bytes32"
        },
        {
          "indexed": true,
          "internalType": "bytes32",
          "name": "previousAdminRole",
          "type": "bytes32"
        },
        {
          "indexed": true,
          "internalType": "bytes32",
          "name": "newAdminRole",
          "type": "bytes32"
        }
      ],
      "name": "RoleAdminChanged",
      "type": "event"
    },
    {
      "anonymous": false,
      "inputs": [
        {
          "indexed": true,
          "internalType": "bytes32",
          "name": "role",
          "type": "bytes32"
        },
        {
          "indexed": true,
          "internalType": "address",
          "name": "account",
          "type": "address"
        },
        {
          "indexed": true,
          "internalType": "address",
          "name": "sender",
          "type": "address"
        }
      ],
      "name": "RoleGranted",
      "type": "event"
    },
    {
      "anonymous": false,
      "inputs": [
        {
          "indexed": true,
          "internalType": "bytes32",
          "name": "role",
          "type": "bytes32"
        },
        {
          "indexed": true,
          "internalType": "address",
          "name": "account",
          "type": "address"
        },
        {
          "indexed": true,
          "internalType": "address",
          "name": "sender",
          "type": "address"
        }
      ],
      "name": "RoleRevoked",
      "type": "event"
    },
    {
      "anonymous": false,
      "inputs": [
        {
          "indexed": true,
          "internalType": "address",
          "name": "operator",
          "type": "address"
        },
        {
          "indexed": true,
          "internalType": "address",
          "name": "from",
          "type": "address"
        },
        {
          "indexed": true,
          "internalType": "address",
          "name": "to",
          "type": "address"
        },
        {
          "indexed": false,
          "internalType": "uint256[]",
          "name": "ids",
          "type": "uint256[]"
        },
        {
          "indexed": false,
          "internalType": "uint256[]",
          "name": "values",
          "type": "uint256[]"
        }
      ],
      "name": "TransferBatch",
      "type": "event"
    },
    {
      "anonymous": false,
      "inputs": [
        {
          "indexed": true,
          "internalType": "address",
          "name": "operator",
          "type": "address"
        },
        {
          "indexed": true,
          "internalType": "address",
          "name": "from",
          "type": "address"
        },
        {
          "indexed": true,
          "internalType": "address",
          "name": "to",
          "type": "address"
        },
        {
          "indexed": false,
          "internalType": "uint256",
          "name": "id",
          "type": "uint256"
        },
        {
          "indexed": false,
          "internalType": "uint256",
          "name": "value",
          "type": "uint256"
        }
      ],
      "name": "TransferSingle",
      "type": "event"
    },
    {
      "anonymous": false,
      "inputs": [
        {
          "indexed": false,
          "internalType": "string",
          "name": "value",
          "type": "string"
        },
        {
          "indexed": true,
          "internalType": "uint256",
          "name": "id",
          "type": "uint256"
        }
      ],
      "name": "URI",
      "type": "event"
    },
    {
      "anonymous": false,
      "inputs": [
        {
          "indexed": false,
          "internalType": "address",
          "name": "account",
          "type": "address"
        }
      ],
      "name": "Unpaused",
      "type": "event"
    },
    {
      "inputs": [],
      "name": "DEFAULT_ADMIN_ROLE",
      "outputs": [
        {
          "internalType": "bytes32",
          "name": "",
          "type": "bytes32"
        }
      ],
      "stateMutability": "view",
      "type": "function",
      "constant": true
    },
    {
      "inputs": [],
      "name": "MINTER_ROLE",
      "outputs": [
        {
          "internalType": "bytes32",
          "name": "",
          "type": "bytes32"
        }
      ],
      "stateMutability": "view",
      "type": "function",
      "constant": true
    },
    {
      "inputs": [],
      "name": "PAUSER_ROLE",
      "outputs": [
        {
          "internalType": "bytes32",
          "name": "",
          "type": "bytes32"
        }
      ],
      "stateMutability": "view",
      "type": "function",
      "constant": true
    },
    {
      "inputs": [],
      "name": "PRICE",
      "outputs": [
        {
          "internalType": "uint256",
          "name": "",
          "type": "uint256"
        }
      ],
      "stateMutability": "view",
      "type": "function",
      "constant": true
    },
    {
      "inputs": [],
      "name": "TICKETS",
      "outputs": [
        {
          "internalType": "uint256",
          "name": "",
          "type": "uint256"
        }
      ],
      "stateMutability": "view",
      "type": "function",
      "constant": true
    },
    {
      "inputs": [
        {
          "internalType": "address",
          "name": "account",
          "type": "address"
        },
        {
          "internalType": "uint256",
          "name": "id",
          "type": "uint256"
        }
      ],
      "name": "balanceOf",
      "outputs": [
        {
          "internalType": "uint256",
          "name": "",
          "type": "uint256"
        }
      ],
      "stateMutability": "view",
      "type": "function",
      "constant": true
    },
    {
      "inputs": [
        {
          "internalType": "address[]",
          "name": "accounts",
          "type": "address[]"
        },
        {
          "internalType": "uint256[]",
          "name": "ids",
          "type": "uint256[]"
        }
      ],
      "name": "balanceOfBatch",
      "outputs": [
        {
          "internalType": "uint256[]",
          "name": "",
          "type": "uint256[]"
        }
      ],
      "stateMutability": "view",
      "type": "function",
      "constant": true
    },
    {
      "inputs": [
        {
          "internalType": "address",
          "name": "account",
          "type": "address"
        },
        {
          "internalType": "uint256",
          "name": "id",
          "type": "uint256"
        },
        {
          "internalType": "uint256",
          "name": "value",
          "type": "uint256"
        }
      ],
      "name": "burn",
      "outputs": [],
      "stateMutability": "nonpayable",
      "type": "function"
    },
    {
      "inputs": [
        {
          "internalType": "address",
          "name": "account",
          "type": "address"
        },
        {
          "internalType": "uint256[]",
          "name": "ids",
          "type": "uint256[]"
        },
        {
          "internalType": "uint256[]",
          "name": "values",
          "type": "uint256[]"
        }
      ],
      "name": "burnBatch",
      "outputs": [],
      "stateMutability": "nonpayable",
      "type": "function"
    },
    {
      "inputs": [
        {
          "internalType": "bytes32",
          "name": "role",
          "type": "bytes32"
        }
      ],
      "name": "getRoleAdmin",
      "outputs": [
        {
          "internalType": "bytes32",
          "name": "",
          "type": "bytes32"
        }
      ],
      "stateMutability": "view",
      "type": "function",
      "constant": true
    },
    {
      "inputs": [
        {
          "internalType": "bytes32",
          "name": "role",
          "type": "bytes32"
        },
        {
          "internalType": "uint256",
          "name": "index",
          "type": "uint256"
        }
      ],
      "name": "getRoleMember",
      "outputs": [
        {
          "internalType": "address",
          "name": "",
          "type": "address"
        }
      ],
      "stateMutability": "view",
      "type": "function",
      "constant": true
    },
    {
      "inputs": [
        {
          "internalType": "bytes32",
          "name": "role",
          "type": "bytes32"
        }
      ],
      "name": "getRoleMemberCount",
      "outputs": [
        {
          "internalType": "uint256",
          "name": "",
          "type": "uint256"
        }
      ],
      "stateMutability": "view",
      "type": "function",
      "constant": true
    },
    {
      "inputs": [
        {
          "internalType": "bytes32",
          "name": "role",
          "type": "bytes32"
        },
        {
          "internalType": "address",
          "name": "account",
          "type": "address"
        }
      ],
      "name": "grantRole",
      "outputs": [],
      "stateMutability": "nonpayable",
      "type": "function"
    },
    {
      "inputs": [
        {
          "internalType": "bytes32",
          "name": "role",
          "type": "bytes32"
        },
        {
          "internalType": "address",
          "name": "account",
          "type": "address"
        }
      ],
      "name": "hasRole",
      "outputs": [
        {
          "internalType": "bool",
          "name": "",
          "type": "bool"
        }
      ],
      "stateMutability": "view",
      "type": "function",
      "constant": true
    },
    {
      "inputs": [
        {
          "internalType": "address",
          "name": "account",
          "type": "address"
        },
        {
          "internalType": "address",
          "name": "operator",
          "type": "address"
        }
      ],
      "name": "isApprovedForAll",
      "outputs": [
        {
          "internalType": "bool",
          "name": "",
          "type": "bool"
        }
      ],
      "stateMutability": "view",
      "type": "function",
      "constant": true
    },
    {
      "inputs": [
        {
          "internalType": "address",
          "name": "to",
          "type": "address"
        },
        {
          "internalType": "uint256",
          "name": "id",
          "type": "uint256"
        },
        {
          "internalType": "uint256",
          "name": "amount",
          "type": "uint256"
        },
        {
          "internalType": "bytes",
          "name": "data",
          "type": "bytes"
        }
      ],
      "name": "mint",
      "outputs": [],
      "stateMutability": "nonpayable",
      "type": "function"
    },
    {
      "inputs": [
        {
          "internalType": "address",
          "name": "to",
          "type": "address"
        },
        {
          "internalType": "uint256[]",
          "name": "ids",
          "type": "uint256[]"
        },
        {
          "internalType": "uint256[]",
          "name": "amounts",
          "type": "uint256[]"
        },
        {
          "internalType": "bytes",
          "name": "data",
          "type": "bytes"
        }
      ],
      "name": "mintBatch",
      "outputs": [],
      "stateMutability": "nonpayable",
      "type": "function"
    },
    {
      "inputs": [],
      "name": "pause",
      "outputs": [],
      "stateMutability": "nonpayable",
      "type": "function"
    },
    {
      "inputs": [],
      "name": "paused",
      "outputs": [
        {
          "internalType": "bool",
          "name": "",
          "type": "bool"
        }
      ],
      "stateMutability": "view",
      "type": "function",
      "constant": true
    },
    {
      "inputs": [
        {
          "internalType": "bytes32",
          "name": "role",
          "type": "bytes32"
        },
        {
          "internalType": "address",
          "name": "account",
          "type": "address"
        }
      ],
      "name": "renounceRole",
      "outputs": [],
      "stateMutability": "nonpayable",
      "type": "function"
    },
    {
      "inputs": [
        {
          "internalType": "bytes32",
          "name": "role",
          "type": "bytes32"
        },
        {
          "internalType": "address",
          "name": "account",
          "type": "address"
        }
      ],
      "name": "revokeRole",
      "outputs": [],
      "stateMutability": "nonpayable",
      "type": "function"
    },
    {
      "inputs": [
        {
          "internalType": "address",
          "name": "from",
          "type": "address"
        },
        {
          "internalType": "address",
          "name": "to",
          "type": "address"
        },
        {
          "internalType": "uint256[]",
          "name": "ids",
          "type": "uint256[]"
        },
        {
          "internalType": "uint256[]",
          "name": "amounts",
          "type": "uint256[]"
        },
        {
          "internalType": "bytes",
          "name": "data",
          "type": "bytes"
        }
      ],
      "name": "safeBatchTransferFrom",
      "outputs": [],
      "stateMutability": "nonpayable",
      "type": "function"
    },
    {
      "inputs": [
        {
          "internalType": "address",
          "name": "from",
          "type": "address"
        },
        {
          "internalType": "address",
          "name": "to",
          "type": "address"
        },
        {
          "internalType": "uint256",
          "name": "id",
          "type": "uint256"
        },
        {
          "internalType": "uint256",
          "name": "amount",
          "type": "uint256"
        },
        {
          "internalType": "bytes",
          "name": "data",
          "type": "bytes"
        }
      ],
      "name": "safeTransferFrom",
      "outputs": [],
      "stateMutability": "nonpayable",
      "type": "function"
    },
    {
      "inputs": [
        {
          "internalType": "address",
          "name": "operator",
          "type": "address"
        },
        {
          "internalType": "bool",
          "name": "approved",
          "type": "bool"
        }
      ],
      "name": "setApprovalForAll",
      "outputs": [],
      "stateMutability": "nonpayable",
      "type": "function"
    },
    {
      "inputs": [
        {
          "internalType": "bytes4",
          "name": "interfaceId",
          "type": "bytes4"
        }
      ],
      "name": "supportsInterface",
      "outputs": [
        {
          "internalType": "bool",
          "name": "",
          "type": "bool"
        }
      ],
      "stateMutability": "view",
      "type": "function",
      "constant": true
    },
    {
      "inputs": [],
      "name": "unpause",
      "outputs": [],
      "stateMutability": "nonpayable",
      "type": "function"
    },
    {
      "inputs": [
        {
          "internalType": "uint256",
          "name": "_tokenId",
          "type": "uint256"
        }
      ],
      "name": "uri",
      "outputs": [
        {
          "internalType": "string",
          "name": "",
          "type": "string"
        }
      ],
      "stateMutability": "pure",
      "type": "function",
      "constant": true
    }
  ],
  "bytecode": "0x60806040523480156200001157600080fd5b506040516200607f3803806200607f833981810160405281019062000037919062000a19565b60405180608001604052806048815260200162006037604891398062000063816200015160201b60201c565b506000600560006101000a81548160ff021916908315150217905550620000a36000801b620000976200016d60201b60201c565b6200017560201b60201c565b620000e47f9f2df0fed2c77648de5860a4cc508cd0818c85b8b8a1ab4ceeef8d981c8956a6620000d86200016d60201b60201c565b6200017560201b60201c565b620001257f65d7a28e3265b37a6474929f336521b332c1681b933f6cb9f3376673440d862a620001196200016d60201b60201c565b6200017560201b60201c565b506200014a3360008360405180602001604052806000815250620001bd60201b60201c565b506200119f565b8060049080519060200190620001699291906200091f565b5050565b600033905090565b6200018c82826200038360201b62000fd41760201c565b620001b881600160008581526020019081526020016000206200039960201b62000fe21790919060201c565b505050565b600073ffffffffffffffffffffffffffffffffffffffff168473ffffffffffffffffffffffffffffffffffffffff16141562000230576040517f08c379a0000000000000000000000000000000000000000000000000000000008152600401620002279062000ad2565b60405180910390fd5b6000620002426200016d60201b60201c565b90506200027b816000876200025d88620003d160201b60201c565b6200026e88620003d160201b60201c565b876200045260201b60201c565b826002600086815260200190815260200160002060008773ffffffffffffffffffffffffffffffffffffffff1673ffffffffffffffffffffffffffffffffffffffff1681526020019081526020016000206000828254620002dd919062000b23565b925050819055508473ffffffffffffffffffffffffffffffffffffffff16600073ffffffffffffffffffffffffffffffffffffffff168273ffffffffffffffffffffffffffffffffffffffff167fc3d58168c5ae7397731d063d5bbf3d657854427343f4c083240f7aacaa2d0f6287876040516200035d92919062000b91565b60405180910390a46200037c816000878787876200047560201b60201c565b5050505050565b6200039582826200067f60201b60201c565b5050565b6000620003c9836000018373ffffffffffffffffffffffffffffffffffffffff1660001b6200077060201b60201c565b905092915050565b60606000600167ffffffffffffffff811115620003f357620003f262000bbe565b5b604051908082528060200260200182016040528015620004225781602001602082028036833780820191505090505b50905082816000815181106200043d576200043c62000bed565b5b60200260200101818152505080915050919050565b6200046d868686868686620007ea60201b620010121760201c565b505050505050565b620004a18473ffffffffffffffffffffffffffffffffffffffff166200086060201b620010701760201c565b1562000677578373ffffffffffffffffffffffffffffffffffffffff1663f23a6e6187878686866040518663ffffffff1660e01b8152600401620004ea95949392919062000d05565b602060405180830381600087803b1580156200050557600080fd5b505af19250505080156200053957506040513d601f19601f8201168201806040525081019062000536919062000dc6565b60015b620005eb576200054862000e05565b806308c379a01415620005ac57506200056062000e60565b806200056d5750620005ae565b806040517f08c379a0000000000000000000000000000000000000000000000000000000008152600401620005a3919062000f4e565b60405180910390fd5b505b6040517f08c379a0000000000000000000000000000000000000000000000000000000008152600401620005e29062000fe8565b60405180910390fd5b63f23a6e6160e01b7bffffffffffffffffffffffffffffffffffffffffffffffffffffffff1916817bffffffffffffffffffffffffffffffffffffffffffffffffffffffff19161462000675576040517f08c379a00000000000000000000000000000000000000000000000000000000081526004016200066c9062001080565b60405180910390fd5b505b505050505050565b6200069182826200087360201b60201c565b6200076c57600160008084815260200190815260200160002060000160008373ffffffffffffffffffffffffffffffffffffffff1673ffffffffffffffffffffffffffffffffffffffff16815260200190815260200160002060006101000a81548160ff021916908315150217905550620007116200016d60201b60201c565b73ffffffffffffffffffffffffffffffffffffffff168173ffffffffffffffffffffffffffffffffffffffff16837f2f8788117e7eff1d82e926ec794901d17c78024a50270940304540a733656f0d60405160405180910390a45b5050565b6000620007848383620008dd60201b60201c565b620007df578260000182908060018154018082558091505060019003906000526020600020016000909190919091505582600001805490508360010160008481526020019081526020016000208190555060019050620007e4565b600090505b92915050565b620008058686868686866200090060201b620010831760201c565b620008156200090860201b60201c565b1562000858576040517f08c379a00000000000000000000000000000000000000000000000000000000081526004016200084f9062001118565b60405180910390fd5b505050505050565b600080823b905060008111915050919050565b600080600084815260200190815260200160002060000160008373ffffffffffffffffffffffffffffffffffffffff1673ffffffffffffffffffffffffffffffffffffffff16815260200190815260200160002060009054906101000a900460ff16905092915050565b600080836001016000848152602001908152602001600020541415905092915050565b505050505050565b6000600560009054906101000a900460ff16905090565b8280546200092d9062001169565b90600052602060002090601f0160209004810192826200095157600085556200099d565b82601f106200096c57805160ff19168380011785556200099d565b828001600101855582156200099d579182015b828111156200099c5782518255916020019190600101906200097f565b5b509050620009ac9190620009b0565b5090565b5b80821115620009cb576000816000905550600101620009b1565b5090565b6000604051905090565b600080fd5b6000819050919050565b620009f381620009de565b8114620009ff57600080fd5b50565b60008151905062000a1381620009e8565b92915050565b60006020828403121562000a325762000a31620009d9565b5b600062000a428482850162000a02565b91505092915050565b600082825260208201905092915050565b7f455243313135353a206d696e7420746f20746865207a65726f2061646472657360008201527f7300000000000000000000000000000000000000000000000000000000000000602082015250565b600062000aba60218362000a4b565b915062000ac78262000a5c565b604082019050919050565b6000602082019050818103600083015262000aed8162000aab565b9050919050565b7f4e487b7100000000000000000000000000000000000000000000000000000000600052601160045260246000fd5b600062000b3082620009de565b915062000b3d83620009de565b9250827fffffffffffffffffffffffffffffffffffffffffffffffffffffffffffffffff0382111562000b755762000b7462000af4565b5b828201905092915050565b62000b8b81620009de565b82525050565b600060408201905062000ba8600083018562000b80565b62000bb7602083018462000b80565b9392505050565b7f4e487b7100000000000000000000000000000000000000000000000000000000600052604160045260246000fd5b7f4e487b7100000000000000000000000000000000000000000000000000000000600052603260045260246000fd5b600073ffffffffffffffffffffffffffffffffffffffff82169050919050565b600062000c498262000c1c565b9050919050565b62000c5b8162000c3c565b82525050565b600081519050919050565b600082825260208201905092915050565b60005b8381101562000c9d57808201518184015260208101905062000c80565b8381111562000cad576000848401525b50505050565b6000601f19601f8301169050919050565b600062000cd18262000c61565b62000cdd818562000c6c565b935062000cef81856020860162000c7d565b62000cfa8162000cb3565b840191505092915050565b600060a08201905062000d1c600083018862000c50565b62000d2b602083018762000c50565b62000d3a604083018662000b80565b62000d49606083018562000b80565b818103608083015262000d5d818462000cc4565b90509695505050505050565b60007fffffffff0000000000000000000000000000000000000000000000000000000082169050919050565b62000da08162000d69565b811462000dac57600080fd5b50565b60008151905062000dc08162000d95565b92915050565b60006020828403121562000ddf5762000dde620009d9565b5b600062000def8482850162000daf565b91505092915050565b60008160e01c9050919050565b600060033d111562000e275760046000803e62000e2460005162000df8565b90505b90565b62000e358262000cb3565b810181811067ffffffffffffffff8211171562000e575762000e5662000bbe565b5b80604052505050565b600060443d101562000e725762000eff565b62000e7c620009cf565b60043d036004823e80513d602482011167ffffffffffffffff8211171562000ea657505062000eff565b808201805167ffffffffffffffff81111562000ec6575050505062000eff565b80602083010160043d03850181111562000ee557505050505062000eff565b62000ef68260200185018662000e2a565b82955050505050505b90565b600081519050919050565b600062000f1a8262000f02565b62000f26818562000a4b565b935062000f3881856020860162000c7d565b62000f438162000cb3565b840191505092915050565b6000602082019050818103600083015262000f6a818462000f0d565b905092915050565b7f455243313135353a207472616e7366657220746f206e6f6e204552433131353560008201527f526563656976657220696d706c656d656e746572000000000000000000000000602082015250565b600062000fd060348362000a4b565b915062000fdd8262000f72565b604082019050919050565b60006020820190508181036000830152620010038162000fc1565b9050919050565b7f455243313135353a204552433131353552656365697665722072656a6563746560008201527f6420746f6b656e73000000000000000000000000000000000000000000000000602082015250565b60006200106860288362000a4b565b915062001075826200100a565b604082019050919050565b600060208201905081810360008301526200109b8162001059565b9050919050565b7f455243313135355061757361626c653a20746f6b656e207472616e736665722060008201527f7768696c65207061757365640000000000000000000000000000000000000000602082015250565b600062001100602c8362000a4b565b91506200110d82620010a2565b604082019050919050565b600060208201905081810360008301526200113381620010f1565b9050919050565b7f4e487b7100000000000000000000000000000000000000000000000000000000600052602260045260246000fd5b600060028204905060018216806200118257607f821691505b602082108114156200119957620011986200113a565b5b50919050565b614e8880620011af6000396000f3fe608060405234801561001057600080fd5b50600436106101a85760003560e01c8063731133e9116100f9578063ca15c87311610097578063e63ab1e911610071578063e63ab1e9146104b7578063e985e9c5146104d5578063f242432a14610505578063f5298aca14610521576101a8565b8063ca15c8731461044d578063d53913931461047d578063d547741f1461049b576101a8565b80639010d07c116100d35780639010d07c146103b357806391d14854146103e3578063a217fddf14610413578063a22cb46514610431576101a8565b8063731133e91461036f5780638456cb591461038b5780638d859f3e14610395576101a8565b80632eb2c2d6116101665780633f4ba83a116101405780633f4ba83a146102fb5780634e1273f4146103055780635c975abb146103355780636b20c45414610353576101a8565b80632eb2c2d6146102a75780632f2ff15d146102c357806336568abe146102df576101a8565b8062fdd58e146101ad57806301ffc9a7146101dd5780630e89341c1461020d57806318c33e461461023d5780631f7fdffa1461025b578063248a9ca314610277575b600080fd5b6101c760048036038101906101c29190613054565b61053d565b6040516101d491906130a3565b60405180910390f35b6101f760048036038101906101f29190613116565b610607565b604051610204919061315e565b60405180910390f35b61022760048036038101906102229190613179565b610619565b604051610234919061323f565b60405180910390f35b61024561064a565b60405161025291906130a3565b60405180910390f35b6102756004803603810190610270919061345e565b61064f565b005b610291600480360381019061028c919061354f565b6106d1565b60405161029e919061358b565b60405180910390f35b6102c160048036038101906102bc91906135a6565b6106f0565b005b6102dd60048036038101906102d89190613675565b610791565b005b6102f960048036038101906102f49190613675565b6107c5565b005b6103036107f9565b005b61031f600480360381019061031a9190613778565b610873565b60405161032c91906138ae565b60405180910390f35b61033d61098c565b60405161034a919061315e565b60405180910390f35b61036d600480360381019061036891906138d0565b6109a3565b005b6103896004803603810190610384919061395b565b610a40565b005b610393610ac2565b005b61039d610b3c565b6040516103aa91906130a3565b60405180910390f35b6103cd60048036038101906103c891906139de565b610b41565b6040516103da9190613a2d565b60405180910390f35b6103fd60048036038101906103f89190613675565b610b70565b60405161040a919061315e565b60405180910390f35b61041b610bda565b604051610428919061358b565b60405180910390f35b61044b60048036038101906104469190613a74565b610be1565b005b6104676004803603810190610462919061354f565b610d62565b60405161047491906130a3565b60405180910390f35b610485610d86565b604051610492919061358b565b60405180910390f35b6104b560048036038101906104b09190613675565b610daa565b005b6104bf610dde565b6040516104cc919061358b565b60405180910390f35b6104ef60048036038101906104ea9190613ab4565b610e02565b6040516104fc919061315e565b60405180910390f35b61051f600480360381019061051a9190613af4565b610e96565b005b61053b60048036038101906105369190613b8b565b610f37565b005b60008073ffffffffffffffffffffffffffffffffffffffff168373ffffffffffffffffffffffffffffffffffffffff1614156105ae576040517f08c379a00000000000000000000000000000000000000000000000000000000081526004016105a590613c50565b60405180910390fd5b6002600083815260200190815260200160002060008473ffffffffffffffffffffffffffffffffffffffff1673ffffffffffffffffffffffffffffffffffffffff16815260200190815260200160002054905092915050565b60006106128261108b565b9050919050565b60606106248261116d565b6040516020016106349190613d6a565b6040516020818303038152906040529050919050565b600081565b6106807f9f2df0fed2c77648de5860a4cc508cd0818c85b8b8a1ab4ceeef8d981c8956a661067b6112ce565b610b70565b6106bf576040517f08c379a00000000000000000000000000000000000000000000000000000000081526004016106b690613e09565b60405180910390fd5b6106cb848484846112d6565b50505050565b6000806000838152602001908152602001600020600101549050919050565b6106f86112ce565b73ffffffffffffffffffffffffffffffffffffffff168573ffffffffffffffffffffffffffffffffffffffff16148061073e575061073d856107386112ce565b610e02565b5b61077d576040517f08c379a000000000000000000000000000000000000000000000000000000000815260040161077490613e9b565b60405180910390fd5b61078a85858585856114f5565b5050505050565b61079b828261180c565b6107c08160016000858152602001908152602001600020610fe290919063ffffffff16565b505050565b6107cf8282611835565b6107f481600160008581526020019081526020016000206118b890919063ffffffff16565b505050565b61082a7f65d7a28e3265b37a6474929f336521b332c1681b933f6cb9f3376673440d862a6108256112ce565b610b70565b610869576040517f08c379a000000000000000000000000000000000000000000000000000000000815260040161086090613f2d565b60405180910390fd5b6108716118e8565b565b606081518351146108b9576040517f08c379a00000000000000000000000000000000000000000000000000000000081526004016108b090613fbf565b60405180910390fd5b6000835167ffffffffffffffff8111156108d6576108d5613266565b5b6040519080825280602002602001820160405280156109045781602001602082028036833780820191505090505b50905060005b84518110156109815761095185828151811061092957610928613fdf565b5b602002602001015185838151811061094457610943613fdf565b5b602002602001015161053d565b82828151811061096457610963613fdf565b5b6020026020010181815250508061097a9061403d565b905061090a565b508091505092915050565b6000600560009054906101000a900460ff16905090565b6109ab6112ce565b73ffffffffffffffffffffffffffffffffffffffff168373ffffffffffffffffffffffffffffffffffffffff1614806109f157506109f0836109eb6112ce565b610e02565b5b610a30576040517f08c379a0000000000000000000000000000000000000000000000000000000008152600401610a27906140f8565b60405180910390fd5b610a3b83838361198a565b505050565b610a717f9f2df0fed2c77648de5860a4cc508cd0818c85b8b8a1ab4ceeef8d981c8956a6610a6c6112ce565b610b70565b610ab0576040517f08c379a0000000000000000000000000000000000000000000000000000000008152600401610aa790613e09565b60405180910390fd5b610abc84848484611c3d565b50505050565b610af37f65d7a28e3265b37a6474929f336521b332c1681b933f6cb9f3376673440d862a610aee6112ce565b610b70565b610b32576040517f08c379a0000000000000000000000000000000000000000000000000000000008152600401610b299061418a565b60405180910390fd5b610b3a611dd4565b565b600a81565b6000610b688260016000868152602001908152602001600020611e7790919063ffffffff16565b905092915050565b600080600084815260200190815260200160002060000160008373ffffffffffffffffffffffffffffffffffffffff1673ffffffffffffffffffffffffffffffffffffffff16815260200190815260200160002060009054906101000a900460ff16905092915050565b6000801b81565b8173ffffffffffffffffffffffffffffffffffffffff16610c006112ce565b73ffffffffffffffffffffffffffffffffffffffff161415610c57576040517f08c379a0000000000000000000000000000000000000000000000000000000008152600401610c4e9061421c565b60405180910390fd5b8060036000610c646112ce565b73ffffffffffffffffffffffffffffffffffffffff1673ffffffffffffffffffffffffffffffffffffffff16815260200190815260200160002060008473ffffffffffffffffffffffffffffffffffffffff1673ffffffffffffffffffffffffffffffffffffffff16815260200190815260200160002060006101000a81548160ff0219169083151502179055508173ffffffffffffffffffffffffffffffffffffffff16610d116112ce565b73ffffffffffffffffffffffffffffffffffffffff167f17307eab39ab6107e8899845ad3d59bd9653f200f220920489ca2b5937696c3183604051610d56919061315e565b60405180910390a35050565b6000610d7f60016000848152602001908152602001600020611e91565b9050919050565b7f9f2df0fed2c77648de5860a4cc508cd0818c85b8b8a1ab4ceeef8d981c8956a681565b610db48282611ea6565b610dd981600160008581526020019081526020016000206118b890919063ffffffff16565b505050565b7f65d7a28e3265b37a6474929f336521b332c1681b933f6cb9f3376673440d862a81565b6000600360008473ffffffffffffffffffffffffffffffffffffffff1673ffffffffffffffffffffffffffffffffffffffff16815260200190815260200160002060008373ffffffffffffffffffffffffffffffffffffffff1673ffffffffffffffffffffffffffffffffffffffff16815260200190815260200160002060009054906101000a900460ff16905092915050565b610e9e6112ce565b73ffffffffffffffffffffffffffffffffffffffff168573ffffffffffffffffffffffffffffffffffffffff161480610ee45750610ee385610ede6112ce565b610e02565b5b610f23576040517f08c379a0000000000000000000000000000000000000000000000000000000008152600401610f1a906140f8565b60405180910390fd5b610f308585858585611ecf565b5050505050565b610f3f6112ce565b73ffffffffffffffffffffffffffffffffffffffff168373ffffffffffffffffffffffffffffffffffffffff161480610f855750610f8483610f7f6112ce565b610e02565b5b610fc4576040517f08c379a0000000000000000000000000000000000000000000000000000000008152600401610fbb906140f8565b60405180910390fd5b610fcf838383612154565b505050565b610fde8282612373565b5050565b600061100a836000018373ffffffffffffffffffffffffffffffffffffffff1660001b612453565b905092915050565b611020868686868686611083565b61102861098c565b15611068576040517f08c379a000000000000000000000000000000000000000000000000000000000815260040161105f906142ae565b60405180910390fd5b505050505050565b600080823b905060008111915050919050565b505050505050565b60007fd9b67a26000000000000000000000000000000000000000000000000000000007bffffffffffffffffffffffffffffffffffffffffffffffffffffffff1916827bffffffffffffffffffffffffffffffffffffffffffffffffffffffff1916148061115657507f0e89341c000000000000000000000000000000000000000000000000000000007bffffffffffffffffffffffffffffffffffffffffffffffffffffffff1916827bffffffffffffffffffffffffffffffffffffffffffffffffffffffff1916145b806111665750611165826124c3565b5b9050919050565b606060008214156111b5576040518060400160405280600181526020017f300000000000000000000000000000000000000000000000000000000000000081525090506112c9565b600082905060005b600082146111e75780806111d09061403d565b915050600a826111e091906142fd565b91506111bd565b60008167ffffffffffffffff81111561120357611202613266565b5b6040519080825280601f01601f1916602001820160405280156112355781602001600182028036833780820191505090505b5090505b600085146112c25760018261124e919061432e565b9150600a8561125d9190614362565b60306112699190614393565b60f81b81838151811061127f5761127e613fdf565b5b60200101907effffffffffffffffffffffffffffffffffffffffffffffffffffffffffffff1916908160001a905350600a856112bb91906142fd565b9450611239565b8093505050505b919050565b600033905090565b600073ffffffffffffffffffffffffffffffffffffffff168473ffffffffffffffffffffffffffffffffffffffff161415611346576040517f08c379a000000000000000000000000000000000000000000000000000000000815260040161133d9061445b565b60405180910390fd5b815183511461138a576040517f08c379a0000000000000000000000000000000000000000000000000000000008152600401611381906144ed565b60405180910390fd5b60006113946112ce565b90506113a58160008787878761253d565b60005b845181101561145f578381815181106113c4576113c3613fdf565b5b6020026020010151600260008784815181106113e3576113e2613fdf565b5b6020026020010151815260200190815260200160002060008873ffffffffffffffffffffffffffffffffffffffff1673ffffffffffffffffffffffffffffffffffffffff16815260200190815260200160002060008282546114459190614393565b9250508190555080806114579061403d565b9150506113a8565b508473ffffffffffffffffffffffffffffffffffffffff16600073ffffffffffffffffffffffffffffffffffffffff168273ffffffffffffffffffffffffffffffffffffffff167f4a39dc06d4c0dbc64b70af90fd698a233a518aa5d07e595d983b8c0526c8f7fb87876040516114d792919061450d565b60405180910390a46114ee81600087878787612553565b5050505050565b8151835114611539576040517f08c379a0000000000000000000000000000000000000000000000000000000008152600401611530906144ed565b60405180910390fd5b600073ffffffffffffffffffffffffffffffffffffffff168473ffffffffffffffffffffffffffffffffffffffff1614156115a9576040517f08c379a00000000000000000000000000000000000000000000000000000000081526004016115a0906145b6565b60405180910390fd5b60006115b36112ce565b90506115c381878787878761253d565b60005b84518110156117775760008582815181106115e4576115e3613fdf565b5b60200260200101519050600085838151811061160357611602613fdf565b5b6020026020010151905060006002600084815260200190815260200160002060008b73ffffffffffffffffffffffffffffffffffffffff1673ffffffffffffffffffffffffffffffffffffffff168152602001908152602001600020549050818110156116a5576040517f08c379a000000000000000000000000000000000000000000000000000000000815260040161169c90614648565b60405180910390fd5b8181036002600085815260200190815260200160002060008c73ffffffffffffffffffffffffffffffffffffffff1673ffffffffffffffffffffffffffffffffffffffff16815260200190815260200160002081905550816002600085815260200190815260200160002060008b73ffffffffffffffffffffffffffffffffffffffff1673ffffffffffffffffffffffffffffffffffffffff168152602001908152602001600020600082825461175c9190614393565b92505081905550505050806117709061403d565b90506115c6565b508473ffffffffffffffffffffffffffffffffffffffff168673ffffffffffffffffffffffffffffffffffffffff168273ffffffffffffffffffffffffffffffffffffffff167f4a39dc06d4c0dbc64b70af90fd698a233a518aa5d07e595d983b8c0526c8f7fb87876040516117ee92919061450d565b60405180910390a4611804818787878787612553565b505050505050565b611815826106d1565b611826816118216112ce565b61273a565b6118308383612373565b505050565b61183d6112ce565b73ffffffffffffffffffffffffffffffffffffffff168173ffffffffffffffffffffffffffffffffffffffff16146118aa576040517f08c379a00000000000000000000000000000000000000000000000000000000081526004016118a1906146da565b60405180910390fd5b6118b482826127d7565b5050565b60006118e0836000018373ffffffffffffffffffffffffffffffffffffffff1660001b6128b8565b905092915050565b6118f061098c565b61192f576040517f08c379a000000000000000000000000000000000000000000000000000000000815260040161192690614746565b60405180910390fd5b6000600560006101000a81548160ff0219169083151502179055507f5db9ee0a495bf2e6ff9c91a7834c1ba4fdd244a5e8aa4e537bd38aeae4b073aa6119736112ce565b6040516119809190613a2d565b60405180910390a1565b600073ffffffffffffffffffffffffffffffffffffffff168373ffffffffffffffffffffffffffffffffffffffff1614156119fa576040517f08c379a00000000000000000000000000000000000000000000000000000000081526004016119f1906147d8565b60405180910390fd5b8051825114611a3e576040517f08c379a0000000000000000000000000000000000000000000000000000000008152600401611a35906144ed565b60405180910390fd5b6000611a486112ce565b9050611a688185600086866040518060200160405280600081525061253d565b60005b8351811015611bb7576000848281518110611a8957611a88613fdf565b5b602002602001015190506000848381518110611aa857611aa7613fdf565b5b6020026020010151905060006002600084815260200190815260200160002060008973ffffffffffffffffffffffffffffffffffffffff1673ffffffffffffffffffffffffffffffffffffffff16815260200190815260200160002054905081811015611b4a576040517f08c379a0000000000000000000000000000000000000000000000000000000008152600401611b419061486a565b60405180910390fd5b8181036002600085815260200190815260200160002060008a73ffffffffffffffffffffffffffffffffffffffff1673ffffffffffffffffffffffffffffffffffffffff168152602001908152602001600020819055505050508080611baf9061403d565b915050611a6b565b50600073ffffffffffffffffffffffffffffffffffffffff168473ffffffffffffffffffffffffffffffffffffffff168273ffffffffffffffffffffffffffffffffffffffff167f4a39dc06d4c0dbc64b70af90fd698a233a518aa5d07e595d983b8c0526c8f7fb8686604051611c2f92919061450d565b60405180910390a450505050565b600073ffffffffffffffffffffffffffffffffffffffff168473ffffffffffffffffffffffffffffffffffffffff161415611cad576040517f08c379a0000000000000000000000000000000000000000000000000000000008152600401611ca49061445b565b60405180910390fd5b6000611cb76112ce565b9050611cd881600087611cc9886129cc565b611cd2886129cc565b8761253d565b826002600086815260200190815260200160002060008773ffffffffffffffffffffffffffffffffffffffff1673ffffffffffffffffffffffffffffffffffffffff1681526020019081526020016000206000828254611d389190614393565b925050819055508473ffffffffffffffffffffffffffffffffffffffff16600073ffffffffffffffffffffffffffffffffffffffff168273ffffffffffffffffffffffffffffffffffffffff167fc3d58168c5ae7397731d063d5bbf3d657854427343f4c083240f7aacaa2d0f628787604051611db692919061488a565b60405180910390a4611dcd81600087878787612a46565b5050505050565b611ddc61098c565b15611e1c576040517f08c379a0000000000000000000000000000000000000000000000000000000008152600401611e13906148ff565b60405180910390fd5b6001600560006101000a81548160ff0219169083151502179055507f62e78cea01bee320cd4e420270b5ea74000d11b0c9f74754ebdbfc544b05a258611e606112ce565b604051611e6d9190613a2d565b60405180910390a1565b6000611e868360000183612c2d565b60001c905092915050565b6000611e9f82600001612c58565b9050919050565b611eaf826106d1565b611ec081611ebb6112ce565b61273a565b611eca83836127d7565b505050565b600073ffffffffffffffffffffffffffffffffffffffff168473ffffffffffffffffffffffffffffffffffffffff161415611f3f576040517f08c379a0000000000000000000000000000000000000000000000000000000008152600401611f36906145b6565b60405180910390fd5b6000611f496112ce565b9050611f69818787611f5a886129cc565b611f63886129cc565b8761253d565b60006002600086815260200190815260200160002060008873ffffffffffffffffffffffffffffffffffffffff1673ffffffffffffffffffffffffffffffffffffffff16815260200190815260200160002054905083811015612001576040517f08c379a0000000000000000000000000000000000000000000000000000000008152600401611ff890614648565b60405180910390fd5b8381036002600087815260200190815260200160002060008973ffffffffffffffffffffffffffffffffffffffff1673ffffffffffffffffffffffffffffffffffffffff16815260200190815260200160002081905550836002600087815260200190815260200160002060008873ffffffffffffffffffffffffffffffffffffffff1673ffffffffffffffffffffffffffffffffffffffff16815260200190815260200160002060008282546120b89190614393565b925050819055508573ffffffffffffffffffffffffffffffffffffffff168773ffffffffffffffffffffffffffffffffffffffff168373ffffffffffffffffffffffffffffffffffffffff167fc3d58168c5ae7397731d063d5bbf3d657854427343f4c083240f7aacaa2d0f62888860405161213592919061488a565b60405180910390a461214b828888888888612a46565b50505050505050565b600073ffffffffffffffffffffffffffffffffffffffff168373ffffffffffffffffffffffffffffffffffffffff1614156121c4576040517f08c379a00000000000000000000000000000000000000000000000000000000081526004016121bb906147d8565b60405180910390fd5b60006121ce6112ce565b90506121fe818560006121e0876129cc565b6121e9876129cc565b6040518060200160405280600081525061253d565b60006002600085815260200190815260200160002060008673ffffffffffffffffffffffffffffffffffffffff1673ffffffffffffffffffffffffffffffffffffffff16815260200190815260200160002054905082811015612296576040517f08c379a000000000000000000000000000000000000000000000000000000000815260040161228d9061486a565b60405180910390fd5b8281036002600086815260200190815260200160002060008773ffffffffffffffffffffffffffffffffffffffff1673ffffffffffffffffffffffffffffffffffffffff16815260200190815260200160002081905550600073ffffffffffffffffffffffffffffffffffffffff168573ffffffffffffffffffffffffffffffffffffffff168373ffffffffffffffffffffffffffffffffffffffff167fc3d58168c5ae7397731d063d5bbf3d657854427343f4c083240f7aacaa2d0f62878760405161236492919061488a565b60405180910390a45050505050565b61237d8282610b70565b61244f57600160008084815260200190815260200160002060000160008373ffffffffffffffffffffffffffffffffffffffff1673ffffffffffffffffffffffffffffffffffffffff16815260200190815260200160002060006101000a81548160ff0219169083151502179055506123f46112ce565b73ffffffffffffffffffffffffffffffffffffffff168173ffffffffffffffffffffffffffffffffffffffff16837f2f8788117e7eff1d82e926ec794901d17c78024a50270940304540a733656f0d60405160405180910390a45b5050565b600061245f8383612c69565b6124b85782600001829080600181540180825580915050600190039060005260206000200160009091909190915055826000018054905083600101600084815260200190815260200160002081905550600190506124bd565b600090505b92915050565b60007f5a05180f000000000000000000000000000000000000000000000000000000007bffffffffffffffffffffffffffffffffffffffffffffffffffffffff1916827bffffffffffffffffffffffffffffffffffffffffffffffffffffffff19161480612536575061253582612c8c565b5b9050919050565b61254b868686868686611012565b505050505050565b6125728473ffffffffffffffffffffffffffffffffffffffff16611070565b15612732578373ffffffffffffffffffffffffffffffffffffffff1663bc197c8187878686866040518663ffffffff1660e01b81526004016125b8959493929190614974565b602060405180830381600087803b1580156125d257600080fd5b505af192505050801561260357506040513d601f19601f8201168201806040525081019061260091906149f1565b60015b6126a95761260f614a2b565b806308c379a0141561266c5750612624614a4d565b8061262f575061266e565b806040517f08c379a0000000000000000000000000000000000000000000000000000000008152600401612663919061323f565b60405180910390fd5b505b6040517f08c379a00000000000000000000000000000000000000000000000000000000081526004016126a090614b55565b60405180910390fd5b63bc197c8160e01b7bffffffffffffffffffffffffffffffffffffffffffffffffffffffff1916817bffffffffffffffffffffffffffffffffffffffffffffffffffffffff191614612730576040517f08c379a000000000000000000000000000000000000000000000000000000000815260040161272790614be7565b60405180910390fd5b505b505050505050565b6127448282610b70565b6127d3576127698173ffffffffffffffffffffffffffffffffffffffff166014612d06565b6127778360001c6020612d06565b604051602001612788929190614c9f565b6040516020818303038152906040526040517f08c379a00000000000000000000000000000000000000000000000000000000081526004016127ca919061323f565b60405180910390fd5b5050565b6127e18282610b70565b156128b457600080600084815260200190815260200160002060000160008373ffffffffffffffffffffffffffffffffffffffff1673ffffffffffffffffffffffffffffffffffffffff16815260200190815260200160002060006101000a81548160ff0219169083151502179055506128596112ce565b73ffffffffffffffffffffffffffffffffffffffff168173ffffffffffffffffffffffffffffffffffffffff16837ff6391f5c32d9c69d2a47ea670b442974b53935d1edc7fd64eb21e047a839171b60405160405180910390a45b5050565b600080836001016000848152602001908152602001600020549050600081146129c05760006001826128ea919061432e565b9050600060018660000180549050612902919061432e565b905081811461297157600086600001828154811061292357612922613fdf565b5b906000526020600020015490508087600001848154811061294757612946613fdf565b5b90600052602060002001819055508387600101600083815260200190815260200160002081905550505b8560000180548061298557612984614cd9565b5b6001900381819060005260206000200160009055905585600101600086815260200190815260200160002060009055600193505050506129c6565b60009150505b92915050565b60606000600167ffffffffffffffff8111156129eb576129ea613266565b5b604051908082528060200260200182016040528015612a195781602001602082028036833780820191505090505b5090508281600081518110612a3157612a30613fdf565b5b60200260200101818152505080915050919050565b612a658473ffffffffffffffffffffffffffffffffffffffff16611070565b15612c25578373ffffffffffffffffffffffffffffffffffffffff1663f23a6e6187878686866040518663ffffffff1660e01b8152600401612aab959493929190614d08565b602060405180830381600087803b158015612ac557600080fd5b505af1925050508015612af657506040513d601f19601f82011682018060405250810190612af391906149f1565b60015b612b9c57612b02614a2b565b806308c379a01415612b5f5750612b17614a4d565b80612b225750612b61565b806040517f08c379a0000000000000000000000000000000000000000000000000000000008152600401612b56919061323f565b60405180910390fd5b505b6040517f08c379a0000000000000000000000000000000000000000000000000000000008152600401612b9390614b55565b60405180910390fd5b63f23a6e6160e01b7bffffffffffffffffffffffffffffffffffffffffffffffffffffffff1916817bffffffffffffffffffffffffffffffffffffffffffffffffffffffff191614612c23576040517f08c379a0000000000000000000000000000000000000000000000000000000008152600401612c1a90614be7565b60405180910390fd5b505b505050505050565b6000826000018281548110612c4557612c44613fdf565b5b9060005260206000200154905092915050565b600081600001805490509050919050565b600080836001016000848152602001908152602001600020541415905092915050565b60007f7965db0b000000000000000000000000000000000000000000000000000000007bffffffffffffffffffffffffffffffffffffffffffffffffffffffff1916827bffffffffffffffffffffffffffffffffffffffffffffffffffffffff19161480612cff5750612cfe82612f42565b5b9050919050565b606060006002836002612d199190614d62565b612d239190614393565b67ffffffffffffffff811115612d3c57612d3b613266565b5b6040519080825280601f01601f191660200182016040528015612d6e5781602001600182028036833780820191505090505b5090507f300000000000000000000000000000000000000000000000000000000000000081600081518110612da657612da5613fdf565b5b60200101907effffffffffffffffffffffffffffffffffffffffffffffffffffffffffffff1916908160001a9053507f780000000000000000000000000000000000000000000000000000000000000081600181518110612e0a57612e09613fdf565b5b60200101907effffffffffffffffffffffffffffffffffffffffffffffffffffffffffffff1916908160001a90535060006001846002612e4a9190614d62565b612e549190614393565b90505b6001811115612ef4577f3031323334353637383961626364656600000000000000000000000000000000600f861660108110612e9657612e95613fdf565b5b1a60f81b828281518110612ead57612eac613fdf565b5b60200101907effffffffffffffffffffffffffffffffffffffffffffffffffffffffffffff1916908160001a905350600485901c945080612eed90614dbc565b9050612e57565b5060008414612f38576040517f08c379a0000000000000000000000000000000000000000000000000000000008152600401612f2f90614e32565b60405180910390fd5b8091505092915050565b60007f01ffc9a7000000000000000000000000000000000000000000000000000000007bffffffffffffffffffffffffffffffffffffffffffffffffffffffff1916827bffffffffffffffffffffffffffffffffffffffffffffffffffffffff1916149050919050565b6000604051905090565b600080fd5b600080fd5b600073ffffffffffffffffffffffffffffffffffffffff82169050919050565b6000612feb82612fc0565b9050919050565b612ffb81612fe0565b811461300657600080fd5b50565b60008135905061301881612ff2565b92915050565b6000819050919050565b6130318161301e565b811461303c57600080fd5b50565b60008135905061304e81613028565b92915050565b6000806040838503121561306b5761306a612fb6565b5b600061307985828601613009565b925050602061308a8582860161303f565b9150509250929050565b61309d8161301e565b82525050565b60006020820190506130b86000830184613094565b92915050565b60007fffffffff0000000000000000000000000000000000000000000000000000000082169050919050565b6130f3816130be565b81146130fe57600080fd5b50565b600081359050613110816130ea565b92915050565b60006020828403121561312c5761312b612fb6565b5b600061313a84828501613101565b91505092915050565b60008115159050919050565b61315881613143565b82525050565b6000602082019050613173600083018461314f565b92915050565b60006020828403121561318f5761318e612fb6565b5b600061319d8482850161303f565b91505092915050565b600081519050919050565b600082825260208201905092915050565b60005b838110156131e05780820151818401526020810190506131c5565b838111156131ef576000848401525b50505050565b6000601f19601f8301169050919050565b6000613211826131a6565b61321b81856131b1565b935061322b8185602086016131c2565b613234816131f5565b840191505092915050565b600060208201905081810360008301526132598184613206565b905092915050565b600080fd5b7f4e487b7100000000000000000000000000000000000000000000000000000000600052604160045260246000fd5b61329e826131f5565b810181811067ffffffffffffffff821117156132bd576132bc613266565b5b80604052505050565b60006132d0612fac565b90506132dc8282613295565b919050565b600067ffffffffffffffff8211156132fc576132fb613266565b5b602082029050602081019050919050565b600080fd5b6000613325613320846132e1565b6132c6565b905080838252602082019050602084028301858111156133485761334761330d565b5b835b81811015613371578061335d888261303f565b84526020840193505060208101905061334a565b5050509392505050565b600082601f8301126133905761338f613261565b5b81356133a0848260208601613312565b91505092915050565b600080fd5b600067ffffffffffffffff8211156133c9576133c8613266565b5b6133d2826131f5565b9050602081019050919050565b82818337600083830152505050565b60006134016133fc846133ae565b6132c6565b90508281526020810184848401111561341d5761341c6133a9565b5b6134288482856133df565b509392505050565b600082601f83011261344557613444613261565b5b81356134558482602086016133ee565b91505092915050565b6000806000806080858703121561347857613477612fb6565b5b600061348687828801613009565b945050602085013567ffffffffffffffff8111156134a7576134a6612fbb565b5b6134b38782880161337b565b935050604085013567ffffffffffffffff8111156134d4576134d3612fbb565b5b6134e08782880161337b565b925050606085013567ffffffffffffffff81111561350157613500612fbb565b5b61350d87828801613430565b91505092959194509250565b6000819050919050565b61352c81613519565b811461353757600080fd5b50565b60008135905061354981613523565b92915050565b60006020828403121561356557613564612fb6565b5b60006135738482850161353a565b91505092915050565b61358581613519565b82525050565b60006020820190506135a0600083018461357c565b92915050565b600080600080600060a086880312156135c2576135c1612fb6565b5b60006135d088828901613009565b95505060206135e188828901613009565b945050604086013567ffffffffffffffff81111561360257613601612fbb565b5b61360e8882890161337b565b935050606086013567ffffffffffffffff81111561362f5761362e612fbb565b5b61363b8882890161337b565b925050608086013567ffffffffffffffff81111561365c5761365b612fbb565b5b61366888828901613430565b9150509295509295909350565b6000806040838503121561368c5761368b612fb6565b5b600061369a8582860161353a565b92505060206136ab85828601613009565b9150509250929050565b600067ffffffffffffffff8211156136d0576136cf613266565b5b602082029050602081019050919050565b60006136f46136ef846136b5565b6132c6565b905080838252602082019050602084028301858111156137175761371661330d565b5b835b81811015613740578061372c8882613009565b845260208401935050602081019050613719565b5050509392505050565b600082601f83011261375f5761375e613261565b5b813561376f8482602086016136e1565b91505092915050565b6000806040838503121561378f5761378e612fb6565b5b600083013567ffffffffffffffff8111156137ad576137ac612fbb565b5b6137b98582860161374a565b925050602083013567ffffffffffffffff8111156137da576137d9612fbb565b5b6137e68582860161337b565b9150509250929050565b600081519050919050565b600082825260208201905092915050565b6000819050602082019050919050565b6138258161301e565b82525050565b6000613837838361381c565b60208301905092915050565b6000602082019050919050565b600061385b826137f0565b61386581856137fb565b93506138708361380c565b8060005b838110156138a1578151613888888261382b565b975061389383613843565b925050600181019050613874565b5085935050505092915050565b600060208201905081810360008301526138c88184613850565b905092915050565b6000806000606084860312156138e9576138e8612fb6565b5b60006138f786828701613009565b935050602084013567ffffffffffffffff81111561391857613917612fbb565b5b6139248682870161337b565b925050604084013567ffffffffffffffff81111561394557613944612fbb565b5b6139518682870161337b565b9150509250925092565b6000806000806080858703121561397557613974612fb6565b5b600061398387828801613009565b94505060206139948782880161303f565b93505060406139a58782880161303f565b925050606085013567ffffffffffffffff8111156139c6576139c5612fbb565b5b6139d287828801613430565b91505092959194509250565b600080604083850312156139f5576139f4612fb6565b5b6000613a038582860161353a565b9250506020613a148582860161303f565b9150509250929050565b613a2781612fe0565b82525050565b6000602082019050613a426000830184613a1e565b92915050565b613a5181613143565b8114613a5c57600080fd5b50565b600081359050613a6e81613a48565b92915050565b60008060408385031215613a8b57613a8a612fb6565b5b6000613a9985828601613009565b9250506020613aaa85828601613a5f565b9150509250929050565b60008060408385031215613acb57613aca612fb6565b5b6000613ad985828601613009565b9250506020613aea85828601613009565b9150509250929050565b600080600080600060a08688031215613b1057613b0f612fb6565b5b6000613b1e88828901613009565b9550506020613b2f88828901613009565b9450506040613b408882890161303f565b9350506060613b518882890161303f565b925050608086013567ffffffffffffffff811115613b7257613b71612fbb565b5b613b7e88828901613430565b9150509295509295909350565b600080600060608486031215613ba457613ba3612fb6565b5b6000613bb286828701613009565b9350506020613bc38682870161303f565b9250506040613bd48682870161303f565b9150509250925092565b7f455243313135353a2062616c616e636520717565727920666f7220746865207a60008201527f65726f2061646472657373000000000000000000000000000000000000000000602082015250565b6000613c3a602b836131b1565b9150613c4582613bde565b604082019050919050565b60006020820190508181036000830152613c6981613c2d565b9050919050565b600081905092915050565b7f68747470733a2f2f6769746875622e636f6d2f706e61726173696d2f686f687560008201527f6d2f626c6f622f6d61696e2f4d656c615469636b657473455243313135352f00602082015250565b6000613cd7603f83613c70565b9150613ce282613c7b565b603f82019050919050565b6000613cf8826131a6565b613d028185613c70565b9350613d128185602086016131c2565b80840191505092915050565b7f2e6a736f6e000000000000000000000000000000000000000000000000000000600082015250565b6000613d54600583613c70565b9150613d5f82613d1e565b600582019050919050565b6000613d7582613cca565b9150613d818284613ced565b9150613d8c82613d47565b915081905092915050565b7f455243313135355072657365744d696e7465725061757365723a206d7573742060008201527f68617665206d696e74657220726f6c6520746f206d696e740000000000000000602082015250565b6000613df36038836131b1565b9150613dfe82613d97565b604082019050919050565b60006020820190508181036000830152613e2281613de6565b9050919050565b7f455243313135353a207472616e736665722063616c6c6572206973206e6f742060008201527f6f776e6572206e6f7220617070726f7665640000000000000000000000000000602082015250565b6000613e856032836131b1565b9150613e9082613e29565b604082019050919050565b60006020820190508181036000830152613eb481613e78565b9050919050565b7f455243313135355072657365744d696e7465725061757365723a206d7573742060008201527f686176652070617573657220726f6c6520746f20756e70617573650000000000602082015250565b6000613f17603b836131b1565b9150613f2282613ebb565b604082019050919050565b60006020820190508181036000830152613f4681613f0a565b9050919050565b7f455243313135353a206163636f756e747320616e6420696473206c656e67746860008201527f206d69736d617463680000000000000000000000000000000000000000000000602082015250565b6000613fa96029836131b1565b9150613fb482613f4d565b604082019050919050565b60006020820190508181036000830152613fd881613f9c565b9050919050565b7f4e487b7100000000000000000000000000000000000000000000000000000000600052603260045260246000fd5b7f4e487b7100000000000000000000000000000000000000000000000000000000600052601160045260246000fd5b60006140488261301e565b91507fffffffffffffffffffffffffffffffffffffffffffffffffffffffffffffffff82141561407b5761407a61400e565b5b600182019050919050565b7f455243313135353a2063616c6c6572206973206e6f74206f776e6572206e6f7260008201527f20617070726f7665640000000000000000000000000000000000000000000000602082015250565b60006140e26029836131b1565b91506140ed82614086565b604082019050919050565b60006020820190508181036000830152614111816140d5565b9050919050565b7f455243313135355072657365744d696e7465725061757365723a206d7573742060008201527f686176652070617573657220726f6c6520746f20706175736500000000000000602082015250565b60006141746039836131b1565b915061417f82614118565b604082019050919050565b600060208201905081810360008301526141a381614167565b9050919050565b7f455243313135353a2073657474696e6720617070726f76616c2073746174757360008201527f20666f722073656c660000000000000000000000000000000000000000000000602082015250565b60006142066029836131b1565b9150614211826141aa565b604082019050919050565b60006020820190508181036000830152614235816141f9565b9050919050565b7f455243313135355061757361626c653a20746f6b656e207472616e736665722060008201527f7768696c65207061757365640000000000000000000000000000000000000000602082015250565b6000614298602c836131b1565b91506142a38261423c565b604082019050919050565b600060208201905081810360008301526142c78161428b565b9050919050565b7f4e487b7100000000000000000000000000000000000000000000000000000000600052601260045260246000fd5b60006143088261301e565b91506143138361301e565b925082614323576143226142ce565b5b828204905092915050565b60006143398261301e565b91506143448361301e565b9250828210156143575761435661400e565b5b828203905092915050565b600061436d8261301e565b91506143788361301e565b925082614388576143876142ce565b5b828206905092915050565b600061439e8261301e565b91506143a98361301e565b9250827fffffffffffffffffffffffffffffffffffffffffffffffffffffffffffffffff038211156143de576143dd61400e565b5b828201905092915050565b7f455243313135353a206d696e7420746f20746865207a65726f2061646472657360008201527f7300000000000000000000000000000000000000000000000000000000000000602082015250565b60006144456021836131b1565b9150614450826143e9565b604082019050919050565b6000602082019050818103600083015261447481614438565b9050919050565b7f455243313135353a2069647320616e6420616d6f756e7473206c656e6774682060008201527f6d69736d61746368000000000000000000000000000000000000000000000000602082015250565b60006144d76028836131b1565b91506144e28261447b565b604082019050919050565b60006020820190508181036000830152614506816144ca565b9050919050565b600060408201905081810360008301526145278185613850565b9050818103602083015261453b8184613850565b90509392505050565b7f455243313135353a207472616e7366657220746f20746865207a65726f20616460008201527f6472657373000000000000000000000000000000000000000000000000000000602082015250565b60006145a06025836131b1565b91506145ab82614544565b604082019050919050565b600060208201905081810360008301526145cf81614593565b9050919050565b7f455243313135353a20696e73756666696369656e742062616c616e636520666f60008201527f72207472616e7366657200000000000000000000000000000000000000000000602082015250565b6000614632602a836131b1565b915061463d826145d6565b604082019050919050565b6000602082019050818103600083015261466181614625565b9050919050565b7f416363657373436f6e74726f6c3a2063616e206f6e6c792072656e6f756e636560008201527f20726f6c657320666f722073656c660000000000000000000000000000000000602082015250565b60006146c4602f836131b1565b91506146cf82614668565b604082019050919050565b600060208201905081810360008301526146f3816146b7565b9050919050565b7f5061757361626c653a206e6f7420706175736564000000000000000000000000600082015250565b60006147306014836131b1565b915061473b826146fa565b602082019050919050565b6000602082019050818103600083015261475f81614723565b9050919050565b7f455243313135353a206275726e2066726f6d20746865207a65726f206164647260008201527f6573730000000000000000000000000000000000000000000000000000000000602082015250565b60006147c26023836131b1565b91506147cd82614766565b604082019050919050565b600060208201905081810360008301526147f1816147b5565b9050919050565b7f455243313135353a206275726e20616d6f756e7420657863656564732062616c60008201527f616e636500000000000000000000000000000000000000000000000000000000602082015250565b60006148546024836131b1565b915061485f826147f8565b604082019050919050565b6000602082019050818103600083015261488381614847565b9050919050565b600060408201905061489f6000830185613094565b6148ac6020830184613094565b9392505050565b7f5061757361626c653a2070617573656400000000000000000000000000000000600082015250565b60006148e96010836131b1565b91506148f4826148b3565b602082019050919050565b60006020820190508181036000830152614918816148dc565b9050919050565b600081519050919050565b600082825260208201905092915050565b60006149468261491f565b614950818561492a565b93506149608185602086016131c2565b614969816131f5565b840191505092915050565b600060a0820190506149896000830188613a1e565b6149966020830187613a1e565b81810360408301526149a88186613850565b905081810360608301526149bc8185613850565b905081810360808301526149d0818461493b565b90509695505050505050565b6000815190506149eb816130ea565b92915050565b600060208284031215614a0757614a06612fb6565b5b6000614a15848285016149dc565b91505092915050565b60008160e01c9050919050565b600060033d1115614a4a5760046000803e614a47600051614a1e565b90505b90565b600060443d1015614a5d57614ae0565b614a65612fac565b60043d036004823e80513d602482011167ffffffffffffffff82111715614a8d575050614ae0565b808201805167ffffffffffffffff811115614aab5750505050614ae0565b80602083010160043d038501811115614ac8575050505050614ae0565b614ad782602001850186613295565b82955050505050505b90565b7f455243313135353a207472616e7366657220746f206e6f6e204552433131353560008201527f526563656976657220696d706c656d656e746572000000000000000000000000602082015250565b6000614b3f6034836131b1565b9150614b4a82614ae3565b604082019050919050565b60006020820190508181036000830152614b6e81614b32565b9050919050565b7f455243313135353a204552433131353552656365697665722072656a6563746560008201527f6420746f6b656e73000000000000000000000000000000000000000000000000602082015250565b6000614bd16028836131b1565b9150614bdc82614b75565b604082019050919050565b60006020820190508181036000830152614c0081614bc4565b9050919050565b7f416363657373436f6e74726f6c3a206163636f756e7420000000000000000000600082015250565b6000614c3d601783613c70565b9150614c4882614c07565b601782019050919050565b7f206973206d697373696e6720726f6c6520000000000000000000000000000000600082015250565b6000614c89601183613c70565b9150614c9482614c53565b601182019050919050565b6000614caa82614c30565b9150614cb68285613ced565b9150614cc182614c7c565b9150614ccd8284613ced565b91508190509392505050565b7f4e487b7100000000000000000000000000000000000000000000000000000000600052603160045260246000fd5b600060a082019050614d1d6000830188613a1e565b614d2a6020830187613a1e565b614d376040830186613094565b614d446060830185613094565b8181036080830152614d56818461493b565b90509695505050505050565b6000614d6d8261301e565b9150614d788361301e565b9250817fffffffffffffffffffffffffffffffffffffffffffffffffffffffffffffffff0483118215151615614db157614db061400e565b5b828202905092915050565b6000614dc78261301e565b91506000821415614ddb57614dda61400e565b5b600182039050919050565b7f537472696e67733a20686578206c656e67746820696e73756666696369656e74600082015250565b6000614e1c6020836131b1565b9150614e2782614de6565b602082019050919050565b60006020820190508181036000830152614e4b81614e0f565b905091905056fea26469706673582212207cba387b19e6e8a17bece25a61e309967caa6311adea32d992bd73d7b81dbcd064736f6c6343000809003368747470733a2f2f6769746875622e636f6d2f706e61726173696d2f686f68756d2f626c6f622f6d61696e2f4d656c615469636b657473455243313135352f7b69647d2e6a736f6e",
  "immutableReferences": {},
  "source": "// SPDX-License-Identifier: MIT\npragma solidity ^0.8.0;\n\nimport \"@openzeppelin/contracts/token/ERC1155/ERC1155.sol\";\nimport \"@openzeppelin/contracts/utils/Strings.sol\";\nimport \"@openzeppelin/contracts/token/ERC1155/presets/ERC1155PresetMinterPauser.sol\";\n\n// deployed to \n\n\ncontract Tickets is ERC1155PresetMinterPauser {\n    uint256 public constant TICKETS = 0;\n    uint256 public constant PRICE=10;\n    \n    constructor(uint num_tickets)  ERC1155PresetMinterPauser(\"https://github.com/pnarasim/hohum/blob/main/MelaTicketsERC1155/{id}.json\") {\n        _mint(msg.sender, TICKETS, num_tickets, \"\");\n    }\n    \n    function uri(uint256 _tokenId) override pure public  returns (string memory) {\n        return string(\n            abi.encodePacked(\n                \"https://github.com/pnarasim/hohum/blob/main/MelaTicketsERC1155/\",\n                Strings.toString(_tokenId),\n                \".json\"\n                )\n            );\n    }\n    \n    \n}\n\n\n\n",
  "sourcePath": "/Users/priyanarasimhan/Dev/blockchain/settlemint-demo/demo3/contracts/Tickets.sol",
  "compiler": {
    "name": "solc",
    "version": "0.8.9+commit.e5eed63a.Emscripten.clang"
  },
  "schemaVersion": "3.4.3",
  "updatedAt": "2021-11-08T15:33:22.255Z",
  "networkType": "ethereum",
  "devdoc": {
    "kind": "dev",
    "methods": {
      "balanceOf(address,uint256)": {
        "details": "See {IERC1155-balanceOf}. Requirements: - `account` cannot be the zero address."
      },
      "balanceOfBatch(address[],uint256[])": {
        "details": "See {IERC1155-balanceOfBatch}. Requirements: - `accounts` and `ids` must have the same length."
      },
      "getRoleAdmin(bytes32)": {
        "details": "Returns the admin role that controls `role`. See {grantRole} and {revokeRole}. To change a role's admin, use {_setRoleAdmin}."
      },
      "getRoleMember(bytes32,uint256)": {
        "details": "Returns one of the accounts that have `role`. `index` must be a value between 0 and {getRoleMemberCount}, non-inclusive. Role bearers are not sorted in any particular way, and their ordering may change at any point. WARNING: When using {getRoleMember} and {getRoleMemberCount}, make sure you perform all queries on the same block. See the following https://forum.openzeppelin.com/t/iterating-over-elements-on-enumerableset-in-openzeppelin-contracts/2296[forum post] for more information."
      },
      "getRoleMemberCount(bytes32)": {
        "details": "Returns the number of accounts that have `role`. Can be used together with {getRoleMember} to enumerate all bearers of a role."
      },
      "grantRole(bytes32,address)": {
        "details": "Overload {grantRole} to track enumerable memberships"
      },
      "hasRole(bytes32,address)": {
        "details": "Returns `true` if `account` has been granted `role`."
      },
      "isApprovedForAll(address,address)": {
        "details": "See {IERC1155-isApprovedForAll}."
      },
      "mint(address,uint256,uint256,bytes)": {
        "details": "Creates `amount` new tokens for `to`, of token type `id`. See {ERC1155-_mint}. Requirements: - the caller must have the `MINTER_ROLE`."
      },
      "mintBatch(address,uint256[],uint256[],bytes)": {
        "details": "xref:ROOT:erc1155.adoc#batch-operations[Batched] variant of {mint}."
      },
      "pause()": {
        "details": "Pauses all token transfers. See {ERC1155Pausable} and {Pausable-_pause}. Requirements: - the caller must have the `PAUSER_ROLE`."
      },
      "paused()": {
        "details": "Returns true if the contract is paused, and false otherwise."
      },
      "renounceRole(bytes32,address)": {
        "details": "Overload {renounceRole} to track enumerable memberships"
      },
      "revokeRole(bytes32,address)": {
        "details": "Overload {revokeRole} to track enumerable memberships"
      },
      "safeBatchTransferFrom(address,address,uint256[],uint256[],bytes)": {
        "details": "See {IERC1155-safeBatchTransferFrom}."
      },
      "safeTransferFrom(address,address,uint256,uint256,bytes)": {
        "details": "See {IERC1155-safeTransferFrom}."
      },
      "setApprovalForAll(address,bool)": {
        "details": "See {IERC1155-setApprovalForAll}."
      },
      "supportsInterface(bytes4)": {
        "details": "See {IERC165-supportsInterface}."
      },
      "unpause()": {
        "details": "Unpauses all token transfers. See {ERC1155Pausable} and {Pausable-_unpause}. Requirements: - the caller must have the `PAUSER_ROLE`."
      }
    },
    "version": 1
  },
  "userdoc": {
    "kind": "user",
    "methods": {},
    "version": 1
  }
}